LOGON: 8=FIX.4.2|35=A|49=OPS_CANDIDATE_1_8918|56=DTL|34=1|52=20240129-06:02:20|98=0|108=30|10=058|141=Y
SERVER LOGON: ['8=FIX.4.2', '9=84', '35=A', '34=1', '49=DTL', '52=20240129-06:02:20.833', '56=OPS_CANDIDATE_1_8918', '98=0', '108=30', '141=Y', '10=164', '']
CLIENT NEW ORDER: 8=FIX.4.2|35=D|49=OPS_CANDIDATE_1_8918|56=DTL|34=2|52=20240129-06:02:20|11=1|21=1|55=MSFT|54=2|60=20240129-06:02:20|40=1|38=46|10=211
SERVER NEW ORDER: 8=FIX.4.2|9=120|35=8|34=2|49=DTL|52=20240129-06:02:21.049|56=OPS_CANDIDATE_1_8918|11=1|37=02023|38=46|39=0|40=1|44=0|54=2|55=MSFT|150=0|10=066|
CLIENT ORDER CANCEL REQUEST: 8=FIX.4.2|35=F|49=OPS_CANDIDATE_1_8918|56=DTL|34=3|52=20240129-06:02:21|41=1|37=2|11=2|55=MSFT|54=2|38=46|60=20240129-06:02:21|10=226
SERVER ORDER CANCEL REQUEST: 8=FIX.4.2|9=109|35=9|34=3|49=DTL|52=20240129-06:02:21.263|56=OPS_CANDIDATE_1_8918|11=2|37=NONE|39=8|41=1|58=Unknown order id|10=168|
CLIENT NEW ORDER: 8=FIX.4.2|35=D|49=OPS_CANDIDATE_1_8918|56=DTL|34=4|52=20240129-06:02:21|11=3|21=1|55=MSFT|54=1|60=20240129-06:02:21|40=1|38=12|10=209
SERVER NEW ORDER: 8=FIX.4.2|9=93|35=8|34=4|49=DTL|52=20240129-06:02:21.477|56=OPS_CANDIDATE_1_8918|11=3|39=8|58=Unlucky|150=8|10=180|
CLIENT NEW ORDER: 8=FIX.4.2|35=D|49=OPS_CANDIDATE_1_8918|56=DTL|34=5|52=20240129-06:02:21|11=4|21=1|55=AAPL|54=5|60=20240129-06:02:21|40=1|38=88|10=200
SERVER NEW ORDER: 8=FIX.4.2|9=120|35=8|34=5|49=DTL|52=20240129-06:02:21.690|56=OPS_CANDIDATE_1_8918|11=4|37=02025|38=88|39=0|40=1|44=0|54=5|55=AAPL|150=0|10=057|
CLIENT ORDER CANCEL REQUEST: 8=FIX.4.2|35=F|49=OPS_CANDIDATE_1_8918|56=DTL|34=6|52=20240129-06:02:21|41=4|37=5|11=5|55=AAPL|54=5|38=88|60=20240129-06:02:21|10=219
SERVER ORDER CANCEL REQUEST: 8=FIX.4.2|9=135|35=8|34=6|49=DTL|52=20240129-06:02:21.802|56=OPS_CANDIDATE_1_8918|11=1|17=03220|30=NSDQ|31=241.1|32=2|37=02023|39=1|54=2|55=MSFT|150=1|10=112|8=FIX.4.2|9=137|35=8|34=7|49=DTL|52=20240129-06:02:21.803|56=OPS_CANDIDATE_1_8918|11=4|17=03221|30=NSDQ|31=150.79|32=88|37=02025|39=2|54=5|55=AAPL|150=2|10=223|
CLIENT NEW ORDER: 8=FIX.4.2|35=D|49=OPS_CANDIDATE_1_8918|56=DTL|34=7|52=20240129-06:02:22|11=6|21=1|55=MSFT|54=2|60=20240129-06:02:22|40=1|38=55|10=225
SERVER NEW ORDER: 8=FIX.4.2|9=109|35=9|34=8|49=DTL|52=20240129-06:02:21.904|56=OPS_CANDIDATE_1_8918|11=5|37=NONE|39=8|41=4|58=Unknown order id|10=181|
CLIENT ORDER CANCEL REQUEST: 8=FIX.4.2|35=F|49=OPS_CANDIDATE_1_8918|56=DTL|34=8|52=20240129-06:02:22|41=6|37=7|11=7|55=MSFT|54=2|38=55|60=20240129-06:02:22|10=248
SERVER ORDER CANCEL REQUEST: 8=FIX.4.2|9=120|35=8|34=9|49=DTL|52=20240129-06:02:22.117|56=OPS_CANDIDATE_1_8918|11=6|37=02026|38=55|39=0|40=1|44=0|54=2|55=MSFT|150=0|10=078|
CLIENT NEW ORDER: 8=FIX.4.2|35=D|49=OPS_CANDIDATE_1_8918|56=DTL|34=9|52=20240129-06:02:22|11=8|21=1|55=BAC|54=2|60=20240129-06:02:22|40=2|44=60|38=9|10=200
SERVER NEW ORDER: 8=FIX.4.2|9=110|35=9|34=10|49=DTL|52=20240129-06:02:22.330|56=OPS_CANDIDATE_1_8918|11=7|37=NONE|39=8|41=6|58=Unknown order id|10=212|
CLIENT NEW ORDER: 8=FIX.4.2|35=D|49=OPS_CANDIDATE_1_8918|56=DTL|34=10|52=20240129-06:02:22|11=9|21=1|55=BAC|54=1|60=20240129-06:02:22|40=1|38=91|10=153
SERVER NEW ORDER: 8=FIX.4.2|9=94|35=8|34=11|49=DTL|52=20240129-06:02:22.544|56=OPS_CANDIDATE_1_8918|11=8|39=8|58=Unlucky|150=8|10=228|
CLIENT ORDER CANCEL REQUEST: 8=FIX.4.2|35=F|49=OPS_CANDIDATE_1_8918|56=DTL|34=11|52=20240129-06:02:22|41=9|37=10|11=10|55=BAC|54=1|38=91|60=20240129-06:02:22|10=004
SERVER ORDER CANCEL REQUEST: 8=FIX.4.2|9=120|35=8|34=12|49=DTL|52=20240129-06:02:22.756|56=OPS_CANDIDATE_1_8918|11=9|37=02028|38=91|39=0|40=1|44=0|54=1|55=BAC|150=0|10=017|8=FIX.4.2|9=138|35=8|34=13|49=DTL|52=20240129-06:02:22.808|56=OPS_CANDIDATE_1_8918|11=1|17=03222|30=NSDQ|31=239.34|32=12|37=02023|39=1|54=2|55=MSFT|150=1|10=024|8=FIX.4.2|9=138|35=8|34=14|49=DTL|52=20240129-06:02:22.808|56=OPS_CANDIDATE_1_8918|11=6|17=03223|30=NSDQ|31=242.87|32=55|37=02026|39=2|54=2|55=MSFT|150=2|10=045|8=FIX.4.2|9=136|35=8|34=15|49=DTL|52=20240129-06:02:22.808|56=OPS_CANDIDATE_1_8918|11=9|17=03224|30=NSDQ|31=33.19|32=91|37=02028|39=2|54=1|55=BAC|150=2|10=134|
CLIENT NEW ORDER: 8=FIX.4.2|35=D|49=OPS_CANDIDATE_1_8918|56=DTL|34=12|52=20240129-06:02:23|11=11|21=1|55=MSFT|54=2|60=20240129-06:02:23|40=2|44=20|38=61|10=188
SERVER NEW ORDER: 8=FIX.4.2|9=111|35=9|34=16|49=DTL|52=20240129-06:02:22.969|56=OPS_CANDIDATE_1_8918|11=10|37=NONE|39=8|41=9|58=Unknown order id|10=026|
CLIENT NEW ORDER: 8=FIX.4.2|35=D|49=OPS_CANDIDATE_1_8918|56=DTL|34=13|52=20240129-06:02:23|11=12|21=1|55=MSFT|54=2|60=20240129-06:02:23|40=2|44=20|38=68|10=197
SERVER NEW ORDER: 8=FIX.4.2|9=123|35=8|34=17|49=DTL|52=20240129-06:02:23.182|56=OPS_CANDIDATE_1_8918|11=11|37=02029|38=61|39=0|40=2|44=20|54=2|55=MSFT|150=0|10=226|
CLIENT ORDER CANCEL REQUEST: 8=FIX.4.2|35=F|49=OPS_CANDIDATE_1_8918|56=DTL|34=14|52=20240129-06:02:23|41=12|37=13|11=13|55=MSFT|54=2|38=68|60=20240129-06:02:23|10=178
SERVER ORDER CANCEL REQUEST: 8=FIX.4.2|9=95|35=8|34=18|49=DTL|52=20240129-06:02:23.395|56=OPS_CANDIDATE_1_8918|11=12|39=8|58=Unlucky|150=8|10=028|
CLIENT NEW ORDER: 8=FIX.4.2|35=D|49=OPS_CANDIDATE_1_8918|56=DTL|34=15|52=20240129-06:02:23|11=14|21=1|55=AAPL|54=1|60=20240129-06:02:23|40=1|38=8|10=242
SERVER NEW ORDER: 8=FIX.4.2|9=112|35=9|34=19|49=DTL|52=20240129-06:02:23.608|56=OPS_CANDIDATE_1_8918|11=13|37=NONE|39=8|41=12|58=Unknown order id|10=066|8=FIX.4.2|9=137|35=8|34=20|49=DTL|52=20240129-06:02:23.813|56=OPS_CANDIDATE_1_8918|11=1|17=03225|30=NSDQ|31=242.23|32=2|37=02023|39=1|54=2|55=MSFT|150=1|10=220|8=FIX.4.2|9=139|35=8|34=21|49=DTL|52=20240129-06:02:23.814|56=OPS_CANDIDATE_1_8918|11=11|17=03226|30=NSDQ|31=240.12|32=61|37=02029|39=2|54=2|55=MSFT|150=2|10=075|
CLIENT ORDER CANCEL REQUEST: 8=FIX.4.2|35=F|49=OPS_CANDIDATE_1_8918|56=DTL|34=16|52=20240129-06:02:23|41=14|37=15|11=15|55=AAPL|54=1|38=8|60=20240129-06:02:23|10=103
SERVER ORDER CANCEL REQUEST: 8=FIX.4.2|9=121|35=8|34=22|49=DTL|52=20240129-06:02:23.821|56=OPS_CANDIDATE_1_8918|11=14|37=02031|38=8|39=0|40=1|44=0|54=1|55=AAPL|150=0|10=089|
CLIENT NEW ORDER: 8=FIX.4.2|35=D|49=OPS_CANDIDATE_1_8918|56=DTL|34=17|52=20240129-06:02:24|11=16|21=1|55=MSFT|54=2|60=20240129-06:02:24|40=2|44=20|38=1|10=146
SERVER NEW ORDER: 8=FIX.4.2|9=112|35=9|34=23|49=DTL|52=20240129-06:02:24.034|56=OPS_CANDIDATE_1_8918|11=15|37=NONE|39=8|41=14|58=Unknown order id|10=059|
CLIENT NEW ORDER: 8=FIX.4.2|35=D|49=OPS_CANDIDATE_1_8918|56=DTL|34=18|52=20240129-06:02:24|11=17|21=1|55=BAC|54=5|60=20240129-06:02:24|40=1|38=70|10=213
SERVER NEW ORDER: 8=FIX.4.2|9=122|35=8|34=24|49=DTL|52=20240129-06:02:24.247|56=OPS_CANDIDATE_1_8918|11=16|37=02032|38=1|39=0|40=2|44=20|54=2|55=MSFT|150=0|10=171|
CLIENT ORDER CANCEL REQUEST: 8=FIX.4.2|35=F|49=OPS_CANDIDATE_1_8918|56=DTL|34=19|52=20240129-06:02:24|41=17|37=18|11=18|55=BAC|54=5|38=70|60=20240129-06:02:24|10=080
SERVER ORDER CANCEL REQUEST: 8=FIX.4.2|9=121|35=8|34=25|49=DTL|52=20240129-06:02:24.460|56=OPS_CANDIDATE_1_8918|11=17|37=02033|38=70|39=0|40=1|44=0|54=5|55=BAC|150=0|10=060|
CLIENT NEW ORDER: 8=FIX.4.2|35=D|49=OPS_CANDIDATE_1_8918|56=DTL|34=20|52=20240129-06:02:24|11=19|21=1|55=BAC|54=1|60=20240129-06:02:24|40=2|44=50|38=47|10=087
SERVER NEW ORDER: 8=FIX.4.2|9=112|35=9|34=26|49=DTL|52=20240129-06:02:24.673|56=OPS_CANDIDATE_1_8918|11=18|37=NONE|39=8|41=17|58=Unknown order id|10=077|8=FIX.4.2|9=138|35=8|34=27|49=DTL|52=20240129-06:02:24.818|56=OPS_CANDIDATE_1_8918|11=1|17=03227|30=NSDQ|31=239.66|32=30|37=02023|39=2|54=2|55=MSFT|150=2|10=044|8=FIX.4.2|9=138|35=8|34=28|49=DTL|52=20240129-06:02:24.818|56=OPS_CANDIDATE_1_8918|11=14|17=03228|30=NSDQ|31=150.26|32=8|37=02031|39=2|54=1|55=AAPL|150=2|10=013|8=FIX.4.2|9=137|35=8|34=29|49=DTL|52=20240129-06:02:24.818|56=OPS_CANDIDATE_1_8918|11=16|17=03229|30=NSDQ|31=239.5|32=1|37=02032|39=2|54=2|55=MSFT|150=2|10=252|8=FIX.4.2|9=137|35=8|34=30|49=DTL|52=20240129-06:02:24.818|56=OPS_CANDIDATE_1_8918|11=17|17=03230|30=NSDQ|31=32.24|32=35|37=02033|39=1|54=5|55=BAC|150=1|10=170|
CLIENT ORDER CANCEL REQUEST: 8=FIX.4.2|35=F|49=OPS_CANDIDATE_1_8918|56=DTL|34=21|52=20240129-06:02:24|41=19|37=20|11=20|55=BAC|54=1|38=47|60=20240129-06:02:24|10=061
SERVER ORDER CANCEL REQUEST: 8=FIX.4.2|9=122|35=8|34=31|49=DTL|52=20240129-06:02:24.886|56=OPS_CANDIDATE_1_8918|11=19|37=02034|38=47|39=0|40=2|44=50|54=1|55=BAC|150=0|10=127|
CLIENT NEW ORDER: 8=FIX.4.2|35=D|49=OPS_CANDIDATE_1_8918|56=DTL|34=22|52=20240129-06:02:25|11=21|21=1|55=BAC|54=1|60=20240129-06:02:25|40=1|38=43|10=201
SERVER NEW ORDER: 8=FIX.4.2|9=112|35=9|34=32|49=DTL|52=20240129-06:02:25.099|56=OPS_CANDIDATE_1_8918|11=20|37=NONE|39=8|41=19|58=Unknown order id|10=072|
CLIENT NEW ORDER: 8=FIX.4.2|35=D|49=OPS_CANDIDATE_1_8918|56=DTL|34=23|52=20240129-06:02:25|11=22|21=1|55=AAPL|54=1|60=20240129-06:02:25|40=1|38=73|10=038
SERVER NEW ORDER: 8=FIX.4.2|9=121|35=8|34=33|49=DTL|52=20240129-06:02:25.313|56=OPS_CANDIDATE_1_8918|11=21|37=02035|38=43|39=0|40=1|44=0|54=1|55=BAC|150=0|10=050|
CLIENT ORDER CANCEL REQUEST: 8=FIX.4.2|35=F|49=OPS_CANDIDATE_1_8918|56=DTL|34=24|52=20240129-06:02:25|41=22|37=23|11=23|55=AAPL|54=1|38=73|60=20240129-06:02:25|10=153
SERVER ORDER CANCEL REQUEST: 8=FIX.4.2|9=122|35=8|34=34|49=DTL|52=20240129-06:02:25.526|56=OPS_CANDIDATE_1_8918|11=22|37=02036|38=73|39=0|40=1|44=0|54=1|55=AAPL|150=0|10=151|
CLIENT NEW ORDER: 8=FIX.4.2|35=D|49=OPS_CANDIDATE_1_8918|56=DTL|34=25|52=20240129-06:02:25|11=24|21=1|55=AAPL|54=5|60=20240129-06:02:25|40=1|38=85|10=049
SERVER NEW ORDER: 8=FIX.4.2|9=112|35=9|34=35|49=DTL|52=20240129-06:02:25.738|56=OPS_CANDIDATE_1_8918|11=23|37=NONE|39=8|41=22|58=Unknown order id|10=072|8=FIX.4.2|9=137|35=8|34=36|49=DTL|52=20240129-06:02:25.823|56=OPS_CANDIDATE_1_8918|11=17|17=03231|30=NSDQ|31=33.31|32=25|37=02033|39=1|54=5|55=BAC|150=1|10=172|8=FIX.4.2|9=137|35=8|34=37|49=DTL|52=20240129-06:02:25.824|56=OPS_CANDIDATE_1_8918|11=19|17=03232|30=NSDQ|31=34.35|32=47|37=02034|39=2|54=1|55=BAC|150=2|10=185|8=FIX.4.2|9=137|35=8|34=38|49=DTL|52=20240129-06:02:25.824|56=OPS_CANDIDATE_1_8918|11=21|17=03233|30=NSDQ|31=33.45|32=43|37=02035|39=2|54=1|55=BAC|150=2|10=177|8=FIX.4.2|9=139|35=8|34=39|49=DTL|52=20240129-06:02:25.824|56=OPS_CANDIDATE_1_8918|11=22|17=03234|30=NSDQ|31=150.51|32=73|37=02036|39=2|54=1|55=AAPL|150=2|10=063|
CLIENT ORDER CANCEL REQUEST: 8=FIX.4.2|35=F|49=OPS_CANDIDATE_1_8918|56=DTL|34=26|52=20240129-06:02:26|41=24|37=25|11=25|55=AAPL|54=5|38=85|60=20240129-06:02:26|10=170
SERVER ORDER CANCEL REQUEST: 8=FIX.4.2|9=122|35=8|34=40|49=DTL|52=20240129-06:02:25.951|56=OPS_CANDIDATE_1_8918|11=24|37=02037|38=85|39=0|40=1|44=0|54=5|55=AAPL|150=0|10=160|
CLIENT NEW ORDER: 8=FIX.4.2|35=D|49=OPS_CANDIDATE_1_8918|56=DTL|34=27|52=20240129-06:02:26|11=26|21=1|55=BAC|54=5|60=20240129-06:02:26|40=1|38=87|10=225
SERVER NEW ORDER: 8=FIX.4.2|9=112|35=9|34=41|49=DTL|52=20240129-06:02:26.164|56=OPS_CANDIDATE_1_8918|11=25|37=NONE|39=8|41=24|58=Unknown order id|10=067|
CLIENT ORDER CANCEL REQUEST: 8=FIX.4.2|35=F|49=OPS_CANDIDATE_1_8918|56=DTL|34=28|52=20240129-06:02:26|41=26|37=27|11=27|55=BAC|54=5|38=87|60=20240129-06:02:26|10=092
SERVER ORDER CANCEL REQUEST: 8=FIX.4.2|9=95|35=8|34=42|49=DTL|52=20240129-06:02:26.377|56=OPS_CANDIDATE_1_8918|11=26|39=8|58=Unlucky|150=8|10=033|
CLIENT NEW ORDER: 8=FIX.4.2|35=D|49=OPS_CANDIDATE_1_8918|56=DTL|34=29|52=20240129-06:02:26|11=28|21=1|55=BAC|54=5|60=20240129-06:02:26|40=1|38=92|10=225
SERVER NEW ORDER: 8=FIX.4.2|9=112|35=9|34=43|49=DTL|52=20240129-06:02:26.596|56=OPS_CANDIDATE_1_8918|11=27|37=NONE|39=8|41=26|58=Unknown order id|10=082|
CLIENT ORDER CANCEL REQUEST: 8=FIX.4.2|35=F|49=OPS_CANDIDATE_1_8918|56=DTL|34=30|52=20240129-06:02:26|41=28|37=29|11=29|55=BAC|54=5|38=92|60=20240129-06:02:26|10=087
SERVER ORDER CANCEL REQUEST: 8=FIX.4.2|9=121|35=8|34=44|49=DTL|52=20240129-06:02:26.809|56=OPS_CANDIDATE_1_8918|11=28|37=02039|38=92|39=0|40=1|44=0|54=5|55=BAC|150=0|10=082|8=FIX.4.2|9=137|35=8|34=45|49=DTL|52=20240129-06:02:26.829|56=OPS_CANDIDATE_1_8918|11=17|17=03235|30=NSDQ|31=32.47|32=10|37=02033|39=2|54=5|55=BAC|150=2|10=185|8=FIX.4.2|9=138|35=8|34=46|49=DTL|52=20240129-06:02:26.829|56=OPS_CANDIDATE_1_8918|11=24|17=03236|30=NSDQ|31=150.6|32=85|37=02037|39=2|54=5|55=AAPL|150=2|10=030|8=FIX.4.2|9=137|35=8|34=47|49=DTL|52=20240129-06:02:26.829|56=OPS_CANDIDATE_1_8918|11=28|17=03237|30=NSDQ|31=30.64|32=92|37=02039|39=2|54=5|55=BAC|150=2|10=204|
CLIENT NEW ORDER: 8=FIX.4.2|35=D|49=OPS_CANDIDATE_1_8918|56=DTL|34=31|52=20240129-06:02:27|11=30|21=1|55=MSFT|54=2|60=20240129-06:02:27|40=1|38=46|10=069
SERVER NEW ORDER: 8=FIX.4.2|9=112|35=9|34=48|49=DTL|52=20240129-06:02:27.022|56=OPS_CANDIDATE_1_8918|11=29|37=NONE|39=8|41=28|58=Unknown order id|10=076|
CLIENT ORDER CANCEL REQUEST: 8=FIX.4.2|35=F|49=OPS_CANDIDATE_1_8918|56=DTL|34=32|52=20240129-06:02:27|41=30|37=31|11=31|55=MSFT|54=2|38=46|60=20240129-06:02:27|10=182
SERVER ORDER CANCEL REQUEST: 8=FIX.4.2|9=122|35=8|34=49|49=DTL|52=20240129-06:02:27.235|56=OPS_CANDIDATE_1_8918|11=30|37=02040|38=46|39=0|40=1|44=0|54=2|55=MSFT|150=0|10=179|
CLIENT NEW ORDER: 8=FIX.4.2|35=D|49=OPS_CANDIDATE_1_8918|56=DTL|34=33|52=20240129-06:02:27|11=32|21=1|55=AAPL|54=1|60=20240129-06:02:27|40=1|38=16|10=041
SERVER NEW ORDER: 8=FIX.4.2|9=112|35=9|34=50|49=DTL|52=20240129-06:02:27.448|56=OPS_CANDIDATE_1_8918|11=31|37=NONE|39=8|41=30|58=Unknown order id|10=067|
CLIENT ORDER CANCEL REQUEST: 8=FIX.4.2|35=F|49=OPS_CANDIDATE_1_8918|56=DTL|34=34|52=20240129-06:02:27|41=32|37=33|11=33|55=AAPL|54=1|38=16|60=20240129-06:02:27|10=158
SERVER ORDER CANCEL REQUEST: 8=FIX.4.2|9=122|35=8|34=51|49=DTL|52=20240129-06:02:27.662|56=OPS_CANDIDATE_1_8918|11=32|37=02041|38=16|39=0|40=1|44=0|54=1|55=AAPL|150=0|10=147|8=FIX.4.2|9=139|35=8|34=52|49=DTL|52=20240129-06:02:27.835|56=OPS_CANDIDATE_1_8918|11=30|17=03238|30=NSDQ|31=242.88|32=46|37=02040|39=2|54=2|55=MSFT|150=2|10=101|8=FIX.4.2|9=139|35=8|34=53|49=DTL|52=20240129-06:02:27.835|56=OPS_CANDIDATE_1_8918|11=32|17=03239|30=NSDQ|31=151.66|32=16|37=02041|39=2|54=1|55=AAPL|150=2|10=069|
CLIENT NEW ORDER: 8=FIX.4.2|35=D|49=OPS_CANDIDATE_1_8918|56=DTL|34=35|52=20240129-06:02:27|11=34|21=1|55=MSFT|54=5|60=20240129-06:02:27|40=2|44=10|38=25|10=208
SERVER NEW ORDER: 8=FIX.4.2|9=112|35=9|34=54|49=DTL|52=20240129-06:02:27.875|56=OPS_CANDIDATE_1_8918|11=33|37=NONE|39=8|41=32|58=Unknown order id|10=079|
CLIENT NEW ORDER: 8=FIX.4.2|35=D|49=OPS_CANDIDATE_1_8918|56=DTL|34=36|52=20240129-06:02:28|11=35|21=1|55=MSFT|54=1|60=20240129-06:02:28|40=1|38=41|10=075
SERVER NEW ORDER: 8=FIX.4.2|9=123|35=8|34=55|49=DTL|52=20240129-06:02:28.088|56=OPS_CANDIDATE_1_8918|11=34|37=02042|38=25|39=0|40=2|44=10|54=5|55=MSFT|150=0|10=240|
CLIENT NEW ORDER: 8=FIX.4.2|35=D|49=OPS_CANDIDATE_1_8918|56=DTL|34=37|52=20240129-06:02:28|11=36|21=1|55=BAC|54=2|60=20240129-06:02:28|40=1|38=93|10=225
SERVER NEW ORDER: 8=FIX.4.2|9=122|35=8|34=56|49=DTL|52=20240129-06:02:28.300|56=OPS_CANDIDATE_1_8918|11=35|37=02043|38=41|39=0|40=1|44=0|54=1|55=MSFT|150=0|10=173|
CLIENT NEW ORDER: 8=FIX.4.2|35=D|49=OPS_CANDIDATE_1_8918|56=DTL|34=38|52=20240129-06:02:28|11=37|21=1|55=MSFT|54=1|60=20240129-06:02:28|40=2|44=10|38=55|10=215
SERVER NEW ORDER: 8=FIX.4.2|9=121|35=8|34=57|49=DTL|52=20240129-06:02:28.513|56=OPS_CANDIDATE_1_8918|11=36|37=02044|38=93|39=0|40=1|44=0|54=2|55=BAC|150=0|10=073|
CLIENT NEW ORDER: 8=FIX.4.2|35=D|49=OPS_CANDIDATE_1_8918|56=DTL|34=39|52=20240129-06:02:28|11=38|21=1|55=MSFT|54=1|60=20240129-06:02:28|40=1|38=91|10=086
SERVER NEW ORDER: 8=FIX.4.2|9=123|35=8|34=58|49=DTL|52=20240129-06:02:28.727|56=OPS_CANDIDATE_1_8918|11=37|37=02045|38=55|39=0|40=2|44=10|54=1|55=MSFT|150=0|10=248|8=FIX.4.2|9=139|35=8|34=59|49=DTL|52=20240129-06:02:28.839|56=OPS_CANDIDATE_1_8918|11=34|17=03240|30=NSDQ|31=242.35|32=10|37=02042|39=1|54=5|55=MSFT|150=1|10=096|8=FIX.4.2|9=139|35=8|34=60|49=DTL|52=20240129-06:02:28.839|56=OPS_CANDIDATE_1_8918|11=35|17=03241|30=NSDQ|31=241.22|32=41|37=02043|39=2|54=1|55=MSFT|150=2|10=088|8=FIX.4.2|9=137|35=8|34=61|49=DTL|52=20240129-06:02:28.839|56=OPS_CANDIDATE_1_8918|11=36|17=03242|30=NSDQ|31=33.18|32=25|37=02044|39=1|54=2|55=BAC|150=1|10=187|8=FIX.4.2|9=139|35=8|34=62|49=DTL|52=20240129-06:02:28.839|56=OPS_CANDIDATE_1_8918|11=37|17=03243|30=NSDQ|31=237.25|32=12|37=02045|39=1|54=1|55=MSFT|150=1|10=100|
CLIENT ORDER CANCEL REQUEST: 8=FIX.4.2|35=F|49=OPS_CANDIDATE_1_8918|56=DTL|34=40|52=20240129-06:02:29|41=38|37=39|11=39|55=MSFT|54=1|38=91|60=20240129-06:02:29|10=208
SERVER ORDER CANCEL REQUEST: 8=FIX.4.2|9=122|35=8|34=63|49=DTL|52=20240129-06:02:28.940|56=OPS_CANDIDATE_1_8918|11=38|37=02046|38=91|39=0|40=1|44=0|54=1|55=MSFT|150=0|10=192|
CLIENT NEW ORDER: 8=FIX.4.2|35=D|49=OPS_CANDIDATE_1_8918|56=DTL|34=41|52=20240129-06:02:29|11=40|21=1|55=AAPL|54=2|60=20240129-06:02:29|40=1|38=2|10=247
SERVER NEW ORDER: 8=FIX.4.2|9=112|35=9|34=64|49=DTL|52=20240129-06:02:29.154|56=OPS_CANDIDATE_1_8918|11=39|37=NONE|39=8|41=38|58=Unknown order id|10=084|
CLIENT NEW ORDER: 8=FIX.4.2|35=D|49=OPS_CANDIDATE_1_8918|56=DTL|34=42|52=20240129-06:02:29|11=41|21=1|55=AAPL|54=1|60=20240129-06:02:29|40=1|38=90|10=047
SERVER NEW ORDER: 8=FIX.4.2|9=95|35=8|34=65|49=DTL|52=20240129-06:02:29.367|56=OPS_CANDIDATE_1_8918|11=40|39=8|58=Unlucky|150=8|10=036|
CLIENT ORDER CANCEL REQUEST: 8=FIX.4.2|35=F|49=OPS_CANDIDATE_1_8918|56=DTL|34=43|52=20240129-06:02:29|41=41|37=42|11=42|55=AAPL|54=1|38=90|60=20240129-06:02:29|10=164
SERVER ORDER CANCEL REQUEST: 8=FIX.4.2|9=122|35=8|34=66|49=DTL|52=20240129-06:02:29.581|56=OPS_CANDIDATE_1_8918|11=41|37=02048|38=90|39=0|40=1|44=0|54=1|55=AAPL|150=0|10=164|
CLIENT NEW ORDER: 8=FIX.4.2|35=D|49=OPS_CANDIDATE_1_8918|56=DTL|34=44|52=20240129-06:02:29|11=43|21=1|55=BAC|54=1|60=20240129-06:02:29|40=2|44=50|38=93|10=101
SERVER NEW ORDER: 8=FIX.4.2|9=112|35=9|34=67|49=DTL|52=20240129-06:02:29.793|56=OPS_CANDIDATE_1_8918|11=42|37=NONE|39=8|41=41|58=Unknown order id|10=084|8=FIX.4.2|9=139|35=8|34=68|49=DTL|52=20240129-06:02:29.843|56=OPS_CANDIDATE_1_8918|11=34|17=03244|30=NSDQ|31=242.35|32=15|37=02042|39=2|54=5|55=MSFT|150=2|10=103|8=FIX.4.2|9=137|35=8|34=69|49=DTL|52=20240129-06:02:29.843|56=OPS_CANDIDATE_1_8918|11=36|17=03245|30=NSDQ|31=31.17|32=68|37=02044|39=2|54=2|55=BAC|150=2|10=200|8=FIX.4.2|9=139|35=8|34=70|49=DTL|52=20240129-06:02:29.843|56=OPS_CANDIDATE_1_8918|11=37|17=03246|30=NSDQ|31=238.21|32=43|37=02045|39=2|54=1|55=MSFT|150=2|10=101|8=FIX.4.2|9=139|35=8|34=71|49=DTL|52=20240129-06:02:29.844|56=OPS_CANDIDATE_1_8918|11=38|17=03247|30=NSDQ|31=237.32|32=33|37=02046|39=1|54=1|55=MSFT|150=1|10=104|8=FIX.4.2|9=139|35=8|34=72|49=DTL|52=20240129-06:02:29.844|56=OPS_CANDIDATE_1_8918|11=41|17=03248|30=NSDQ|31=152.07|32=33|37=02048|39=1|54=1|55=AAPL|150=1|10=072|
CLIENT NEW ORDER: 8=FIX.4.2|35=D|49=OPS_CANDIDATE_1_8918|56=DTL|34=45|52=20240129-06:02:30|11=44|21=1|55=BAC|54=5|60=20240129-06:02:30|40=2|44=50|38=10|10=080
SERVER NEW ORDER: 8=FIX.4.2|9=95|35=8|34=73|49=DTL|52=20240129-06:02:30.007|56=OPS_CANDIDATE_1_8918|11=43|39=8|58=Unlucky|150=8|10=021|
CLIENT NEW ORDER: 8=FIX.4.2|35=D|49=OPS_CANDIDATE_1_8918|56=DTL|34=46|52=20240129-06:02:30|11=45|21=1|55=AAPL|54=5|60=20240129-06:02:30|40=2|44=30|38=89|10=184
SERVER NEW ORDER: 8=FIX.4.2|9=122|35=8|34=74|49=DTL|52=20240129-06:02:30.220|56=OPS_CANDIDATE_1_8918|11=44|37=02050|38=10|39=0|40=2|44=50|54=5|55=BAC|150=0|10=103|
CLIENT ORDER CANCEL REQUEST: 8=FIX.4.2|35=F|49=OPS_CANDIDATE_1_8918|56=DTL|34=47|52=20240129-06:02:30|41=45|37=46|11=46|55=AAPL|54=5|38=89|60=20240129-06:02:30|10=176
SERVER ORDER CANCEL REQUEST: 8=FIX.4.2|9=95|35=8|34=75|49=DTL|52=20240129-06:02:30.433|56=OPS_CANDIDATE_1_8918|11=45|39=8|58=Unlucky|150=8|10=028|
CLIENT NEW ORDER: 8=FIX.4.2|35=D|49=OPS_CANDIDATE_1_8918|56=DTL|34=48|52=20240129-06:02:30|11=47|21=1|55=AAPL|54=5|60=20240129-06:02:30|40=1|38=95|10=052
SERVER NEW ORDER: 8=FIX.4.2|9=112|35=9|34=76|49=DTL|52=20240129-06:02:30.645|56=OPS_CANDIDATE_1_8918|11=46|37=NONE|39=8|41=45|58=Unknown order id|10=080|8=FIX.4.2|9=138|35=8|34=77|49=DTL|52=20240129-06:02:30.849|56=OPS_CANDIDATE_1_8918|11=38|17=03249|30=NSDQ|31=242.4|32=58|37=02046|39=2|54=1|55=MSFT|150=2|10=064|8=FIX.4.2|9=139|35=8|34=78|49=DTL|52=20240129-06:02:30.849|56=OPS_CANDIDATE_1_8918|11=41|17=03250|30=NSDQ|31=152.28|32=14|37=02048|39=1|54=1|55=AAPL|150=1|10=070|8=FIX.4.2|9=137|35=8|34=79|49=DTL|52=20240129-06:02:30.849|56=OPS_CANDIDATE_1_8918|11=44|17=03251|30=NSDQ|31=30.54|32=10|37=02050|39=2|54=5|55=BAC|150=2|10=182|
CLIENT ORDER CANCEL REQUEST: 8=FIX.4.2|35=F|49=OPS_CANDIDATE_1_8918|56=DTL|34=49|52=20240129-06:02:30|41=47|37=48|11=48|55=AAPL|54=5|38=95|60=20240129-06:02:30|10=181
SERVER ORDER CANCEL REQUEST: 8=FIX.4.2|9=122|35=8|34=80|49=DTL|52=20240129-06:02:30.858|56=OPS_CANDIDATE_1_8918|11=47|37=02052|38=95|39=0|40=1|44=0|54=5|55=AAPL|150=0|10=169|
CLIENT NEW ORDER: 8=FIX.4.2|35=D|49=OPS_CANDIDATE_1_8918|56=DTL|34=50|52=20240129-06:02:31|11=49|21=1|55=BAC|54=2|60=20240129-06:02:31|40=1|38=57|10=212
SERVER NEW ORDER: 8=FIX.4.2|9=112|35=9|34=81|49=DTL|52=20240129-06:02:31.071|56=OPS_CANDIDATE_1_8918|11=48|37=NONE|39=8|41=47|58=Unknown order id|10=074|
CLIENT NEW ORDER: 8=FIX.4.2|35=D|49=OPS_CANDIDATE_1_8918|56=DTL|34=51|52=20240129-06:02:31|11=50|21=1|55=BAC|54=5|60=20240129-06:02:31|40=2|44=50|38=60|10=081
SERVER NEW ORDER: 8=FIX.4.2|9=121|35=8|34=82|49=DTL|52=20240129-06:02:31.284|56=OPS_CANDIDATE_1_8918|11=49|37=02053|38=57|39=0|40=1|44=0|54=2|55=BAC|150=0|10=074|
CLIENT ORDER CANCEL REQUEST: 8=FIX.4.2|35=F|49=OPS_CANDIDATE_1_8918|56=DTL|34=52|52=20240129-06:02:31|41=50|37=51|11=51|55=BAC|54=5|38=60|60=20240129-06:02:31|10=063
SERVER ORDER CANCEL REQUEST: 8=FIX.4.2|9=122|35=8|34=83|49=DTL|52=20240129-06:02:31.497|56=OPS_CANDIDATE_1_8918|11=50|37=02054|38=60|39=0|40=2|44=50|54=5|55=BAC|150=0|10=126|
CLIENT NEW ORDER: 8=FIX.4.2|35=D|49=OPS_CANDIDATE_1_8918|56=DTL|34=53|52=20240129-06:02:31|11=52|21=1|55=AAPL|54=5|60=20240129-06:02:31|40=1|38=31|10=036
SERVER NEW ORDER: 8=FIX.4.2|9=112|35=9|34=84|49=DTL|52=20240129-06:02:31.710|56=OPS_CANDIDATE_1_8918|11=51|37=NONE|39=8|41=50|58=Unknown order id|10=065|8=FIX.4.2|9=139|35=8|34=85|49=DTL|52=20240129-06:02:31.855|56=OPS_CANDIDATE_1_8918|11=41|17=03252|30=NSDQ|31=150.05|32=43|37=02048|39=2|54=1|55=AAPL|150=2|10=065|8=FIX.4.2|9=139|35=8|34=86|49=DTL|52=20240129-06:02:31.855|56=OPS_CANDIDATE_1_8918|11=47|17=03253|30=NSDQ|31=152.35|32=18|37=02052|39=1|54=5|55=AAPL|150=1|10=077|8=FIX.4.2|9=137|35=8|34=87|49=DTL|52=20240129-06:02:31.855|56=OPS_CANDIDATE_1_8918|11=49|17=03254|30=NSDQ|31=30.16|32=54|37=02053|39=1|54=2|55=BAC|150=1|10=191|8=FIX.4.2|9=137|35=8|34=88|49=DTL|52=20240129-06:02:31.855|56=OPS_CANDIDATE_1_8918|11=50|17=03255|30=NSDQ|31=33.37|32=60|37=02054|39=2|54=5|55=BAC|150=2|10=194|
CLIENT NEW ORDER: 8=FIX.4.2|35=D|49=OPS_CANDIDATE_1_8918|56=DTL|34=54|52=20240129-06:02:32|11=53|21=1|55=BAC|54=2|60=20240129-06:02:32|40=2|44=60|38=6|10=039
SERVER NEW ORDER: 8=FIX.4.2|9=122|35=8|34=89|49=DTL|52=20240129-06:02:31.923|56=OPS_CANDIDATE_1_8918|11=52|37=02055|38=31|39=0|40=1|44=0|54=5|55=AAPL|150=0|10=161|
CLIENT ORDER CANCEL REQUEST: 8=FIX.4.2|35=F|49=OPS_CANDIDATE_1_8918|56=DTL|34=55|52=20240129-06:02:32|41=53|37=54|11=54|55=BAC|54=2|38=6|60=20240129-06:02:32|10=026
SERVER ORDER CANCEL REQUEST: 8=FIX.4.2|9=95|35=8|34=90|49=DTL|52=20240129-06:02:32.136|56=OPS_CANDIDATE_1_8918|11=53|39=8|58=Unlucky|150=8|10=026|
CLIENT NEW ORDER: 8=FIX.4.2|35=D|49=OPS_CANDIDATE_1_8918|56=DTL|34=56|52=20240129-06:02:32|11=55|21=1|55=AAPL|54=5|60=20240129-06:02:32|40=2|44=30|38=55|10=183
SERVER NEW ORDER: 8=FIX.4.2|9=112|35=9|34=91|49=DTL|52=20240129-06:02:32.348|56=OPS_CANDIDATE_1_8918|11=54|37=NONE|39=8|41=53|58=Unknown order id|10=077|
CLIENT NEW ORDER: 8=FIX.4.2|35=D|49=OPS_CANDIDATE_1_8918|56=DTL|34=57|52=20240129-06:02:32|11=56|21=1|55=MSFT|54=2|60=20240129-06:02:32|40=1|38=37|10=077
SERVER NEW ORDER: 8=FIX.4.2|9=123|35=8|34=92|49=DTL|52=20240129-06:02:32.561|56=OPS_CANDIDATE_1_8918|11=55|37=02057|38=55|39=0|40=2|44=30|54=5|55=AAPL|150=0|10=218|
CLIENT ORDER CANCEL REQUEST: 8=FIX.4.2|35=F|49=OPS_CANDIDATE_1_8918|56=DTL|34=58|52=20240129-06:02:32|41=56|37=57|11=57|55=MSFT|54=2|38=37|60=20240129-06:02:32|10=206
SERVER ORDER CANCEL REQUEST: 8=FIX.4.2|9=122|35=8|34=93|49=DTL|52=20240129-06:02:32.775|56=OPS_CANDIDATE_1_8918|11=56|37=02058|38=37|39=0|40=1|44=0|54=2|55=MSFT|150=0|10=200|8=FIX.4.2|9=139|35=8|34=94|49=DTL|52=20240129-06:02:32.860|56=OPS_CANDIDATE_1_8918|11=47|17=03256|30=NSDQ|31=151.58|32=49|37=02052|39=1|54=5|55=AAPL|150=1|10=084|8=FIX.4.2|9=135|35=8|34=95|49=DTL|52=20240129-06:02:32.861|56=OPS_CANDIDATE_1_8918|11=49|17=03257|30=NSDQ|31=33.4|32=3|37=02053|39=2|54=2|55=BAC|150=2|10=089|8=FIX.4.2|9=138|35=8|34=96|49=DTL|52=20240129-06:02:32.861|56=OPS_CANDIDATE_1_8918|11=52|17=03258|30=NSDQ|31=151.96|32=2|37=02055|39=1|54=5|55=AAPL|150=1|10=030|8=FIX.4.2|9=139|35=8|34=97|49=DTL|52=20240129-06:02:32.861|56=OPS_CANDIDATE_1_8918|11=55|17=03259|30=NSDQ|31=152.03|32=54|37=02057|39=1|54=5|55=AAPL|150=1|10=082|8=FIX.4.2|9=139|35=8|34=98|49=DTL|52=20240129-06:02:32.861|56=OPS_CANDIDATE_1_8918|11=56|17=03260|30=NSDQ|31=240.39|32=37|37=02058|39=2|54=2|55=MSFT|150=2|10=112|
CLIENT NEW ORDER: 8=FIX.4.2|35=D|49=OPS_CANDIDATE_1_8918|56=DTL|34=59|52=20240129-06:02:33|11=58|21=1|55=BAC|54=1|60=20240129-06:02:33|40=2|44=50|38=33|10=097
SERVER NEW ORDER: 8=FIX.4.2|9=112|35=9|34=99|49=DTL|52=20240129-06:02:32.988|56=OPS_CANDIDATE_1_8918|11=57|37=NONE|39=8|41=56|58=Unknown order id|10=101|
CLIENT ORDER CANCEL REQUEST: 8=FIX.4.2|35=F|49=OPS_CANDIDATE_1_8918|56=DTL|34=60|52=20240129-06:02:33|41=58|37=59|11=59|55=BAC|54=1|38=33|60=20240129-06:02:33|10=086
SERVER ORDER CANCEL REQUEST: 8=FIX.4.2|9=123|35=8|34=100|49=DTL|52=20240129-06:02:33.204|56=OPS_CANDIDATE_1_8918|11=58|37=02059|38=33|39=0|40=2|44=50|54=1|55=BAC|150=0|10=162|
CLIENT NEW ORDER: 8=FIX.4.2|35=D|49=OPS_CANDIDATE_1_8918|56=DTL|34=61|52=20240129-06:02:33|11=60|21=1|55=AAPL|54=2|60=20240129-06:02:33|40=2|44=40|38=3|10=120
SERVER NEW ORDER: 8=FIX.4.2|9=113|35=9|34=101|49=DTL|52=20240129-06:02:33.417|56=OPS_CANDIDATE_1_8918|11=59|37=NONE|39=8|41=58|58=Unknown order id|10=126|
CLIENT ORDER CANCEL REQUEST: 8=FIX.4.2|35=F|49=OPS_CANDIDATE_1_8918|56=DTL|34=62|52=20240129-06:02:33|41=60|37=61|11=61|55=AAPL|54=2|38=3|60=20240129-06:02:33|10=105
SERVER ORDER CANCEL REQUEST: 8=FIX.4.2|9=123|35=8|34=102|49=DTL|52=20240129-06:02:33.630|56=OPS_CANDIDATE_1_8918|11=60|37=02060|38=3|39=0|40=2|44=40|54=2|55=AAPL|150=0|10=189|
CLIENT NEW ORDER: 8=FIX.4.2|35=D|49=OPS_CANDIDATE_1_8918|56=DTL|34=63|52=20240129-06:02:33|11=62|21=1|55=AAPL|54=2|60=20240129-06:02:33|40=2|44=40|38=10|10=170
SERVER NEW ORDER: 8=FIX.4.2|9=113|35=9|34=103|49=DTL|52=20240129-06:02:33.843|56=OPS_CANDIDATE_1_8918|11=61|37=NONE|39=8|41=60|58=Unknown order id|10=117|8=FIX.4.2|9=140|35=8|34=104|49=DTL|52=20240129-06:02:33.866|56=OPS_CANDIDATE_1_8918|11=47|17=03261|30=NSDQ|31=151.87|32=20|37=02052|39=1|54=5|55=AAPL|150=1|10=110|8=FIX.4.2|9=140|35=8|34=105|49=DTL|52=20240129-06:02:33.866|56=OPS_CANDIDATE_1_8918|11=52|17=03262|30=NSDQ|31=152.63|32=29|37=02055|39=2|54=5|55=AAPL|150=2|10=117|8=FIX.4.2|9=139|35=8|34=106|49=DTL|52=20240129-06:02:33.866|56=OPS_CANDIDATE_1_8918|11=55|17=03263|30=NSDQ|31=151.76|32=1|37=02057|39=2|54=5|55=AAPL|150=2|10=077|8=FIX.4.2|9=138|35=8|34=107|49=DTL|52=20240129-06:02:33.866|56=OPS_CANDIDATE_1_8918|11=58|17=03264|30=NSDQ|31=31.23|32=33|37=02059|39=2|54=1|55=BAC|150=2|10=241|8=FIX.4.2|9=139|35=8|34=108|49=DTL|52=20240129-06:02:33.866|56=OPS_CANDIDATE_1_8918|11=60|17=03265|30=NSDQ|31=150.71|32=3|37=02060|39=2|54=2|55=AAPL|150=2|10=064|
CLIENT ORDER CANCEL REQUEST: 8=FIX.4.2|35=F|49=OPS_CANDIDATE_1_8918|56=DTL|34=64|52=20240129-06:02:34|41=62|37=63|11=63|55=AAPL|54=2|38=10|60=20240129-06:02:34|10=161
SERVER ORDER CANCEL REQUEST: 8=FIX.4.2|9=96|35=8|34=109|49=DTL|52=20240129-06:02:34.056|56=OPS_CANDIDATE_1_8918|11=62|39=8|58=Unlucky|150=8|10=079|
CLIENT NEW ORDER: 8=FIX.4.2|35=D|49=OPS_CANDIDATE_1_8918|56=DTL|34=65|52=20240129-06:02:34|11=64|21=1|55=MSFT|54=2|60=20240129-06:02:34|40=1|38=59|10=083
SERVER NEW ORDER: 8=FIX.4.2|9=113|35=9|34=110|49=DTL|52=20240129-06:02:34.269|56=OPS_CANDIDATE_1_8918|11=63|37=NONE|39=8|41=62|58=Unknown order id|10=122|
CLIENT ORDER CANCEL REQUEST: 8=FIX.4.2|35=F|49=OPS_CANDIDATE_1_8918|56=DTL|34=66|52=20240129-06:02:34|41=64|37=65|11=65|55=MSFT|54=2|38=59|60=20240129-06:02:34|10=210
SERVER ORDER CANCEL REQUEST: 8=FIX.4.2|9=123|35=8|34=111|49=DTL|52=20240129-06:02:34.482|56=OPS_CANDIDATE_1_8918|11=64|37=02062|38=59|39=0|40=1|44=0|54=2|55=MSFT|150=0|10=235|
CLIENT NEW ORDER: 8=FIX.4.2|35=D|49=OPS_CANDIDATE_1_8918|56=DTL|34=67|52=20240129-06:02:34|11=66|21=1|55=AAPL|54=5|60=20240129-06:02:34|40=1|38=5|10=005
SERVER NEW ORDER: 8=FIX.4.2|9=113|35=9|34=112|49=DTL|52=20240129-06:02:34.695|56=OPS_CANDIDATE_1_8918|11=65|37=NONE|39=8|41=64|58=Unknown order id|10=131|8=FIX.4.2|9=139|35=8|34=113|49=DTL|52=20240129-06:02:34.871|56=OPS_CANDIDATE_1_8918|11=47|17=03266|30=NSDQ|31=150.12|32=8|37=02052|39=2|54=5|55=AAPL|150=2|10=067|8=FIX.4.2|9=139|35=8|34=114|49=DTL|52=20240129-06:02:34.871|56=OPS_CANDIDATE_1_8918|11=64|17=03267|30=NSDQ|31=239.13|32=1|37=02062|39=1|54=2|55=MSFT|150=1|10=094|
CLIENT NEW ORDER: 8=FIX.4.2|35=D|49=OPS_CANDIDATE_1_8918|56=DTL|34=68|52=20240129-06:02:35|11=67|21=1|55=MSFT|54=5|60=20240129-06:02:35|40=2|44=10|38=77|10=225
SERVER NEW ORDER: 8=FIX.4.2|9=122|35=8|34=115|49=DTL|52=20240129-06:02:34.908|56=OPS_CANDIDATE_1_8918|11=66|37=02063|38=5|39=0|40=1|44=0|54=5|55=AAPL|150=0|10=162|
CLIENT NEW ORDER: 8=FIX.4.2|35=D|49=OPS_CANDIDATE_1_8918|56=DTL|34=69|52=20240129-06:02:35|11=68|21=1|55=BAC|54=5|60=20240129-06:02:35|40=2|44=50|38=12|10=104
SERVER NEW ORDER: 8=FIX.4.2|9=124|35=8|34=116|49=DTL|52=20240129-06:02:35.121|56=OPS_CANDIDATE_1_8918|11=67|37=02064|38=77|39=0|40=2|44=10|54=5|55=MSFT|150=0|10=034|
CLIENT NEW ORDER: 8=FIX.4.2|35=D|49=OPS_CANDIDATE_1_8918|56=DTL|34=70|52=20240129-06:02:35|11=69|21=1|55=MSFT|54=2|60=20240129-06:02:35|40=1|38=36|10=081
SERVER NEW ORDER: 8=FIX.4.2|9=123|35=8|34=117|49=DTL|52=20240129-06:02:35.334|56=OPS_CANDIDATE_1_8918|11=68|37=02065|38=12|39=0|40=2|44=50|54=5|55=BAC|150=0|10=175|
CLIENT NEW ORDER: 8=FIX.4.2|35=D|49=OPS_CANDIDATE_1_8918|56=DTL|34=71|52=20240129-06:02:35|11=70|21=1|55=MSFT|54=1|60=20240129-06:02:35|40=1|38=48|10=076
SERVER NEW ORDER: 8=FIX.4.2|9=123|35=8|34=118|49=DTL|52=20240129-06:02:35.547|56=OPS_CANDIDATE_1_8918|11=69|37=02066|38=36|39=0|40=1|44=0|54=2|55=MSFT|150=0|10=249|
CLIENT NEW ORDER: 8=FIX.4.2|35=D|49=OPS_CANDIDATE_1_8918|56=DTL|34=72|52=20240129-06:02:35|11=71|21=1|55=BAC|54=1|60=20240129-06:02:35|40=2|44=50|38=98|10=102
SERVER NEW ORDER: 8=FIX.4.2|9=123|35=8|34=119|49=DTL|52=20240129-06:02:35.761|56=OPS_CANDIDATE_1_8918|11=70|37=02067|38=48|39=0|40=1|44=0|54=1|55=MSFT|150=0|10=243|8=FIX.4.2|9=140|35=8|34=120|49=DTL|52=20240129-06:02:35.875|56=OPS_CANDIDATE_1_8918|11=64|17=03268|30=NSDQ|31=240.15|32=34|37=02062|39=1|54=2|55=MSFT|150=1|10=137|8=FIX.4.2|9=139|35=8|34=121|49=DTL|52=20240129-06:02:35.875|56=OPS_CANDIDATE_1_8918|11=66|17=03269|30=NSDQ|31=152.48|32=3|37=02063|39=1|54=5|55=AAPL|150=1|10=081|8=FIX.4.2|9=137|35=8|34=122|49=DTL|52=20240129-06:02:35.875|56=OPS_CANDIDATE_1_8918|11=67|17=03270|30=NSDQ|31=237|32=63|37=02064|39=1|54=5|55=MSFT|150=1|10=006|8=FIX.4.2|9=138|35=8|34=123|49=DTL|52=20240129-06:02:35.875|56=OPS_CANDIDATE_1_8918|11=68|17=03271|30=NSDQ|31=32.19|32=12|37=02065|39=2|54=5|55=BAC|150=2|10=244|8=FIX.4.2|9=140|35=8|34=124|49=DTL|52=20240129-06:02:35.875|56=OPS_CANDIDATE_1_8918|11=69|17=03272|30=NSDQ|31=237.77|32=14|37=02066|39=1|54=2|55=MSFT|150=1|10=157|8=FIX.4.2|9=140|35=8|34=125|49=DTL|52=20240129-06:02:35.876|56=OPS_CANDIDATE_1_8918|11=70|17=03273|30=NSDQ|31=240.72|32=12|37=02067|39=1|54=1|55=MSFT|150=1|10=139|
CLIENT ORDER CANCEL REQUEST: 8=FIX.4.2|35=F|49=OPS_CANDIDATE_1_8918|56=DTL|34=73|52=20240129-06:02:36|41=71|37=72|11=72|55=BAC|54=1|38=98|60=20240129-06:02:36|10=092
SERVER ORDER CANCEL REQUEST: 8=FIX.4.2|9=123|35=8|34=126|49=DTL|52=20240129-06:02:35.973|56=OPS_CANDIDATE_1_8918|11=71|37=02068|38=98|39=0|40=2|44=50|54=1|55=BAC|150=0|10=191|
CLIENT NEW ORDER: 8=FIX.4.2|35=D|49=OPS_CANDIDATE_1_8918|56=DTL|34=74|52=20240129-06:02:36|11=73|21=1|55=MSFT|54=2|60=20240129-06:02:36|40=2|44=20|38=59|10=219
SERVER NEW ORDER: 8=FIX.4.2|9=113|35=9|34=127|49=DTL|52=20240129-06:02:36.186|56=OPS_CANDIDATE_1_8918|11=72|37=NONE|39=8|41=71|58=Unknown order id|10=130|
CLIENT ORDER CANCEL REQUEST: 8=FIX.4.2|35=F|49=OPS_CANDIDATE_1_8918|56=DTL|34=75|52=20240129-06:02:36|41=73|37=74|11=74|55=MSFT|54=2|38=59|60=20240129-06:02:36|10=214
SERVER ORDER CANCEL REQUEST: 8=FIX.4.2|9=124|35=8|34=128|49=DTL|52=20240129-06:02:36.399|56=OPS_CANDIDATE_1_8918|11=73|37=02069|38=59|39=0|40=2|44=20|54=2|55=MSFT|150=0|10=055|
CLIENT NEW ORDER: 8=FIX.4.2|35=D|49=OPS_CANDIDATE_1_8918|56=DTL|34=76|52=20240129-06:02:36|11=75|21=1|55=BAC|54=5|60=20240129-06:02:36|40=1|38=64|10=230
SERVER NEW ORDER: 8=FIX.4.2|9=113|35=9|34=129|49=DTL|52=20240129-06:02:36.612|56=OPS_CANDIDATE_1_8918|11=74|37=NONE|39=8|41=73|58=Unknown order id|10=130|
CLIENT NEW ORDER: 8=FIX.4.2|35=D|49=OPS_CANDIDATE_1_8918|56=DTL|34=77|52=20240129-06:02:36|11=76|21=1|55=AAPL|54=1|60=20240129-06:02:36|40=2|44=30|38=94|10=196
SERVER NEW ORDER: 8=FIX.4.2|9=122|35=8|34=130|49=DTL|52=20240129-06:02:36.825|56=OPS_CANDIDATE_1_8918|11=75|37=02070|38=64|39=0|40=1|44=0|54=5|55=BAC|150=0|10=122|8=FIX.4.2|9=140|35=8|34=131|49=DTL|52=20240129-06:02:36.879|56=OPS_CANDIDATE_1_8918|11=64|17=03274|30=NSDQ|31=241.47|32=14|37=02062|39=1|54=2|55=MSFT|150=1|10=145|8=FIX.4.2|9=139|35=8|34=132|49=DTL|52=20240129-06:02:36.880|56=OPS_CANDIDATE_1_8918|11=66|17=03275|30=NSDQ|31=152.67|32=2|37=02063|39=2|54=5|55=AAPL|150=2|10=079|8=FIX.4.2|9=139|35=8|34=133|49=DTL|52=20240129-06:02:36.880|56=OPS_CANDIDATE_1_8918|11=67|17=03276|30=NSDQ|31=239.39|32=6|37=02064|39=1|54=5|55=MSFT|150=1|10=118|8=FIX.4.2|9=140|35=8|34=134|49=DTL|52=20240129-06:02:36.880|56=OPS_CANDIDATE_1_8918|11=69|17=03277|30=NSDQ|31=237.54|32=11|37=02066|39=1|54=2|55=MSFT|150=1|10=152|8=FIX.4.2|9=140|35=8|34=135|49=DTL|52=20240129-06:02:36.880|56=OPS_CANDIDATE_1_8918|11=70|17=03278|30=NSDQ|31=238.22|32=36|37=02067|39=2|54=1|55=MSFT|150=2|10=151|8=FIX.4.2|9=137|35=8|34=136|49=DTL|52=20240129-06:02:36.880|56=OPS_CANDIDATE_1_8918|11=71|17=03279|30=NSDQ|31=32.1|32=40|37=02068|39=1|54=1|55=BAC|150=1|10=187|8=FIX.4.2|9=140|35=8|34=137|49=DTL|52=20240129-06:02:36.880|56=OPS_CANDIDATE_1_8918|11=73|17=03280|30=NSDQ|31=237.62|32=53|37=02069|39=1|54=2|55=MSFT|150=1|10=152|8=FIX.4.2|9=138|35=8|34=138|49=DTL|52=20240129-06:02:36.880|56=OPS_CANDIDATE_1_8918|11=75|17=03281|30=NSDQ|31=32.34|32=64|37=02070|39=2|54=5|55=BAC|150=2|10=246|
CLIENT NEW ORDER: 8=FIX.4.2|35=D|49=OPS_CANDIDATE_1_8918|56=DTL|34=78|52=20240129-06:02:37|11=77|21=1|55=AAPL|54=5|60=20240129-06:02:37|40=2|44=30|38=42|10=197
SERVER NEW ORDER: 8=FIX.4.2|9=124|35=8|34=139|49=DTL|52=20240129-06:02:37.037|56=OPS_CANDIDATE_1_8918|11=76|37=02071|38=94|39=0|40=2|44=30|54=1|55=AAPL|150=0|10=014|
CLIENT ORDER CANCEL REQUEST: 8=FIX.4.2|35=F|49=OPS_CANDIDATE_1_8918|56=DTL|34=79|52=20240129-06:02:37|41=77|37=78|11=78|55=AAPL|54=5|38=42|60=20240129-06:02:37|10=199
SERVER ORDER CANCEL REQUEST: 8=FIX.4.2|9=124|35=8|34=140|49=DTL|52=20240129-06:02:37.250|56=OPS_CANDIDATE_1_8918|11=77|37=02072|38=42|39=0|40=2|44=30|54=5|55=AAPL|150=0|10=002|
CLIENT NEW ORDER: 8=FIX.4.2|35=D|49=OPS_CANDIDATE_1_8918|56=DTL|34=80|52=20240129-06:02:37|11=79|21=1|55=MSFT|54=1|60=20240129-06:02:37|40=2|44=10|38=12|10=211
SERVER NEW ORDER: 8=FIX.4.2|9=113|35=9|34=141|49=DTL|52=20240129-06:02:37.503|56=OPS_CANDIDATE_1_8918|11=78|37=NONE|39=8|41=77|58=Unknown order id|10=132|
CLIENT ORDER CANCEL REQUEST: 8=FIX.4.2|35=F|49=OPS_CANDIDATE_1_8918|56=DTL|34=81|52=20240129-06:02:37|41=79|37=80|11=80|55=MSFT|54=1|38=12|60=20240129-06:02:37|10=201
SERVER ORDER CANCEL REQUEST: 8=FIX.4.2|9=96|35=8|34=142|49=DTL|52=20240129-06:02:37.716|56=OPS_CANDIDATE_1_8918|11=79|39=8|58=Unlucky|150=8|10=090|8=FIX.4.2|9=140|35=8|34=143|49=DTL|52=20240129-06:02:37.884|56=OPS_CANDIDATE_1_8918|11=64|17=03282|30=NSDQ|31=241.11|32=10|37=02062|39=2|54=2|55=MSFT|150=2|10=133|8=FIX.4.2|9=139|35=8|34=144|49=DTL|52=20240129-06:02:37.884|56=OPS_CANDIDATE_1_8918|11=67|17=03283|30=NSDQ|31=238.07|32=8|37=02064|39=2|54=5|55=MSFT|150=2|10=121|8=FIX.4.2|9=140|35=8|34=145|49=DTL|52=20240129-06:02:37.884|56=OPS_CANDIDATE_1_8918|11=69|17=03284|30=NSDQ|31=238.42|32=11|37=02066|39=2|54=2|55=MSFT|150=2|10=157|8=FIX.4.2|9=138|35=8|34=146|49=DTL|52=20240129-06:02:37.884|56=OPS_CANDIDATE_1_8918|11=71|17=03285|30=NSDQ|31=34.05|32=58|37=02068|39=2|54=1|55=BAC|150=2|10=000|8=FIX.4.2|9=139|35=8|34=147|49=DTL|52=20240129-06:02:37.884|56=OPS_CANDIDATE_1_8918|11=73|17=03286|30=NSDQ|31=241.47|32=3|37=02069|39=1|54=2|55=MSFT|150=1|10=117|8=FIX.4.2|9=140|35=8|34=148|49=DTL|52=20240129-06:02:37.885|56=OPS_CANDIDATE_1_8918|11=76|17=03287|30=NSDQ|31=152.65|32=94|37=02071|39=2|54=1|55=AAPL|150=2|10=140|8=FIX.4.2|9=140|35=8|34=149|49=DTL|52=20240129-06:02:37.885|56=OPS_CANDIDATE_1_8918|11=77|17=03288|30=NSDQ|31=151.98|32=18|37=02072|39=1|54=5|55=AAPL|150=1|10=147|
CLIENT NEW ORDER: 8=FIX.4.2|35=D|49=OPS_CANDIDATE_1_8918|56=DTL|34=82|52=20240129-06:02:38|11=81|21=1|55=AAPL|54=1|60=20240129-06:02:38|40=1|38=95|10=060
SERVER NEW ORDER: 8=FIX.4.2|9=113|35=9|34=150|49=DTL|52=20240129-06:02:37.928|56=OPS_CANDIDATE_1_8918|11=80|37=NONE|39=8|41=79|58=Unknown order id|10=138|
CLIENT ORDER CANCEL REQUEST: 8=FIX.4.2|35=F|49=OPS_CANDIDATE_1_8918|56=DTL|34=83|52=20240129-06:02:38|41=81|37=82|11=82|55=AAPL|54=1|38=95|60=20240129-06:02:38|10=185
SERVER ORDER CANCEL REQUEST: 8=FIX.4.2|9=96|35=8|34=151|49=DTL|52=20240129-06:02:38.141|56=OPS_CANDIDATE_1_8918|11=81|39=8|58=Unlucky|150=8|10=076|
CLIENT NEW ORDER: 8=FIX.4.2|35=D|49=OPS_CANDIDATE_1_8918|56=DTL|34=84|52=20240129-06:02:38|11=83|21=1|55=MSFT|54=5|60=20240129-06:02:38|40=2|44=10|38=3|10=168
SERVER NEW ORDER: 8=FIX.4.2|9=113|35=9|34=152|49=DTL|52=20240129-06:02:38.354|56=OPS_CANDIDATE_1_8918|11=82|37=NONE|39=8|41=81|58=Unknown order id|10=129|
CLIENT ORDER CANCEL REQUEST: 8=FIX.4.2|35=F|49=OPS_CANDIDATE_1_8918|56=DTL|34=85|52=20240129-06:02:38|41=83|37=84|11=84|55=MSFT|54=5|38=3|60=20240129-06:02:38|10=166
SERVER ORDER CANCEL REQUEST: 8=FIX.4.2|9=123|35=8|34=153|49=DTL|52=20240129-06:02:38.567|56=OPS_CANDIDATE_1_8918|11=83|37=02075|38=3|39=0|40=2|44=10|54=5|55=MSFT|150=0|10=248|
CLIENT NEW ORDER: 8=FIX.4.2|35=D|49=OPS_CANDIDATE_1_8918|56=DTL|34=86|52=20240129-06:02:38|11=85|21=1|55=MSFT|54=1|60=20240129-06:02:38|40=2|44=10|38=51|10=219
SERVER NEW ORDER: 8=FIX.4.2|9=113|35=9|34=154|49=DTL|52=20240129-06:02:38.780|56=OPS_CANDIDATE_1_8918|11=84|37=NONE|39=8|41=83|58=Unknown order id|10=138|8=FIX.4.2|9=139|35=8|34=155|49=DTL|52=20240129-06:02:38.888|56=OPS_CANDIDATE_1_8918|11=73|17=03289|30=NSDQ|31=240.58|32=3|37=02069|39=2|54=2|55=MSFT|150=2|10=127|8=FIX.4.2|9=140|35=8|34=156|49=DTL|52=20240129-06:02:38.889|56=OPS_CANDIDATE_1_8918|11=77|17=03290|30=NSDQ|31=151.59|32=21|37=02072|39=1|54=5|55=AAPL|150=1|10=134|8=FIX.4.2|9=139|35=8|34=157|49=DTL|52=20240129-06:02:38.889|56=OPS_CANDIDATE_1_8918|11=83|17=03291|30=NSDQ|31=239.67|32=2|37=02075|39=1|54=5|55=MSFT|150=1|10=129|
CLIENT ORDER CANCEL REQUEST: 8=FIX.4.2|35=F|49=OPS_CANDIDATE_1_8918|56=DTL|34=87|52=20240129-06:02:39|41=85|37=86|11=86|55=MSFT|54=1|38=51|60=20240129-06:02:39|10=223
SERVER ORDER CANCEL REQUEST: 8=FIX.4.2|9=124|35=8|34=158|49=DTL|52=20240129-06:02:38.993|56=OPS_CANDIDATE_1_8918|11=85|37=02076|38=51|39=0|40=2|44=10|54=1|55=MSFT|150=0|10=051|
CLIENT NEW ORDER: 8=FIX.4.2|35=D|49=OPS_CANDIDATE_1_8918|56=DTL|34=88|52=20240129-06:02:39|11=87|21=1|55=AAPL|54=2|60=20240129-06:02:39|40=2|44=40|38=34|10=202
SERVER NEW ORDER: 8=FIX.4.2|9=113|35=9|34=159|49=DTL|52=20240129-06:02:39.206|56=OPS_CANDIDATE_1_8918|11=86|37=NONE|39=8|41=85|58=Unknown order id|10=141|
CLIENT NEW ORDER: 8=FIX.4.2|35=D|49=OPS_CANDIDATE_1_8918|56=DTL|34=89|52=20240129-06:02:39|11=88|21=1|55=BAC|54=5|60=20240129-06:02:39|40=2|44=50|38=55|10=123
SERVER NEW ORDER: 8=FIX.4.2|9=124|35=8|34=160|49=DTL|52=20240129-06:02:39.420|56=OPS_CANDIDATE_1_8918|11=87|37=02077|38=34|39=0|40=2|44=40|54=2|55=AAPL|150=0|10=010|
CLIENT NEW ORDER: 8=FIX.4.2|35=D|49=OPS_CANDIDATE_1_8918|56=DTL|34=90|52=20240129-06:02:39|11=89|21=1|55=MSFT|54=5|60=20240129-06:02:39|40=2|44=10|38=51|10=224
SERVER NEW ORDER: 8=FIX.4.2|9=123|35=8|34=161|49=DTL|52=20240129-06:02:39.633|56=OPS_CANDIDATE_1_8918|11=88|37=02078|38=55|39=0|40=2|44=50|54=5|55=BAC|150=0|10=193|
CLIENT NEW ORDER: 8=FIX.4.2|35=D|49=OPS_CANDIDATE_1_8918|56=DTL|34=91|52=20240129-06:02:39|11=90|21=1|55=BAC|54=2|60=20240129-06:02:39|40=1|38=49|10=230
SERVER NEW ORDER: 8=FIX.4.2|9=124|35=8|34=162|49=DTL|52=20240129-06:02:39.846|56=OPS_CANDIDATE_1_8918|11=89|37=02079|38=51|39=0|40=2|44=10|54=5|55=MSFT|150=0|10=055|8=FIX.4.2|9=139|35=8|34=163|49=DTL|52=20240129-06:02:39.893|56=OPS_CANDIDATE_1_8918|11=77|17=03292|30=NSDQ|31=152.03|32=3|37=02072|39=2|54=5|55=AAPL|150=2|10=082|8=FIX.4.2|9=139|35=8|34=164|49=DTL|52=20240129-06:02:39.893|56=OPS_CANDIDATE_1_8918|11=83|17=03293|30=NSDQ|31=238.68|32=1|37=02075|39=2|54=5|55=MSFT|150=2|10=126|8=FIX.4.2|9=139|35=8|34=165|49=DTL|52=20240129-06:02:39.893|56=OPS_CANDIDATE_1_8918|11=85|17=03294|30=NSDQ|31=240.4|32=49|37=02076|39=1|54=1|55=MSFT|150=1|10=120|8=FIX.4.2|9=140|35=8|34=166|49=DTL|52=20240129-06:02:39.893|56=OPS_CANDIDATE_1_8918|11=87|17=03295|30=NSDQ|31=152.97|32=34|37=02077|39=2|54=2|55=AAPL|150=2|10=148|8=FIX.4.2|9=138|35=8|34=167|49=DTL|52=20240129-06:02:39.893|56=OPS_CANDIDATE_1_8918|11=88|17=03296|30=NSDQ|31=30.78|32=55|37=02078|39=2|54=5|55=BAC|150=2|10=023|8=FIX.4.2|9=139|35=8|34=168|49=DTL|52=20240129-06:02:39.893|56=OPS_CANDIDATE_1_8918|11=89|17=03297|30=NSDQ|31=238.25|32=9|37=02079|39=1|54=5|55=MSFT|150=1|10=143|
CLIENT NEW ORDER: 8=FIX.4.2|35=D|49=OPS_CANDIDATE_1_8918|56=DTL|34=92|52=20240129-06:02:40|11=91|21=1|55=AAPL|54=5|60=20240129-06:02:40|40=2|44=30|38=100|10=220
SERVER NEW ORDER: 8=FIX.4.2|9=122|35=8|34=169|49=DTL|52=20240129-06:02:40.059|56=OPS_CANDIDATE_1_8918|11=90|37=02080|38=49|39=0|40=1|44=0|54=2|55=BAC|150=0|10=126|
CLIENT NEW ORDER: 8=FIX.4.2|35=D|49=OPS_CANDIDATE_1_8918|56=DTL|34=93|52=20240129-06:02:40|11=92|21=1|55=AAPL|54=5|60=20240129-06:02:40|40=2|44=30|38=22|10=177
SERVER NEW ORDER: 8=FIX.4.2|9=125|35=8|34=170|49=DTL|52=20240129-06:02:40.272|56=OPS_CANDIDATE_1_8918|11=91|37=02081|38=100|39=0|40=2|44=30|54=5|55=AAPL|150=0|10=043|
CLIENT ORDER CANCEL REQUEST: 8=FIX.4.2|35=F|49=OPS_CANDIDATE_1_8918|56=DTL|34=94|52=20240129-06:02:40|41=92|37=93|11=93|55=AAPL|54=5|38=22|60=20240129-06:02:40|10=173
SERVER ORDER CANCEL REQUEST: 8=FIX.4.2|9=96|35=8|34=171|49=DTL|52=20240129-06:02:40.485|56=OPS_CANDIDATE_1_8918|11=92|39=8|58=Unlucky|150=8|10=084|
CLIENT NEW ORDER: 8=FIX.4.2|35=D|49=OPS_CANDIDATE_1_8918|56=DTL|34=95|52=20240129-06:02:40|11=94|21=1|55=BAC|54=5|60=20240129-06:02:40|40=1|38=12|10=215
SERVER NEW ORDER: 8=FIX.4.2|9=113|35=9|34=172|49=DTL|52=20240129-06:02:40.698|56=OPS_CANDIDATE_1_8918|11=93|37=NONE|39=8|41=92|58=Unknown order id|10=139|8=FIX.4.2|9=139|35=8|34=173|49=DTL|52=20240129-06:02:40.897|56=OPS_CANDIDATE_1_8918|11=85|17=03298|30=NSDQ|31=237.01|32=2|37=02076|39=2|54=1|55=MSFT|150=2|10=113|8=FIX.4.2|9=140|35=8|34=174|49=DTL|52=20240129-06:02:40.898|56=OPS_CANDIDATE_1_8918|11=89|17=03299|30=NSDQ|31=240.13|32=42|37=02079|39=2|54=5|55=MSFT|150=2|10=168|8=FIX.4.2|9=138|35=8|34=175|49=DTL|52=20240129-06:02:40.898|56=OPS_CANDIDATE_1_8918|11=90|17=03300|30=NSDQ|31=30.76|32=49|37=02080|39=2|54=2|55=BAC|150=2|10=245|8=FIX.4.2|9=140|35=8|34=176|49=DTL|52=20240129-06:02:40.898|56=OPS_CANDIDATE_1_8918|11=91|17=03301|30=NSDQ|31=151.25|32=96|37=02081|39=1|54=5|55=AAPL|150=1|10=123|
CLIENT NEW ORDER: 8=FIX.4.2|35=D|49=OPS_CANDIDATE_1_8918|56=DTL|34=96|52=20240129-06:02:41|11=95|21=1|55=MSFT|54=2|60=20240129-06:02:41|40=1|38=83|10=084
SERVER NEW ORDER: 8=FIX.4.2|9=122|35=8|34=177|49=DTL|52=20240129-06:02:40.911|56=OPS_CANDIDATE_1_8918|11=94|37=02083|38=12|39=0|40=1|44=0|54=5|55=BAC|150=0|10=122|
CLIENT NEW ORDER: 8=FIX.4.2|35=D|49=OPS_CANDIDATE_1_8918|56=DTL|34=97|52=20240129-06:02:41|11=96|21=1|55=BAC|54=5|60=20240129-06:02:41|40=1|38=94|10=231
SERVER NEW ORDER: 8=FIX.4.2|9=123|35=8|34=178|49=DTL|52=20240129-06:02:41.124|56=OPS_CANDIDATE_1_8918|11=95|37=02084|38=83|39=0|40=1|44=0|54=2|55=MSFT|150=0|10=244|
CLIENT ORDER CANCEL REQUEST: 8=FIX.4.2|35=F|49=OPS_CANDIDATE_1_8918|56=DTL|34=98|52=20240129-06:02:41|41=96|37=97|11=97|55=BAC|54=5|38=94|60=20240129-06:02:41|10=112
SERVER ORDER CANCEL REQUEST: 8=FIX.4.2|9=96|35=8|34=179|49=DTL|52=20240129-06:02:41.337|56=OPS_CANDIDATE_1_8918|11=96|39=8|58=Unlucky|150=8|10=093|
CLIENT NEW ORDER: 8=FIX.4.2|35=D|49=OPS_CANDIDATE_1_8918|56=DTL|34=99|52=20240129-06:02:41|11=98|21=1|55=AAPL|54=5|60=20240129-06:02:41|40=2|44=30|38=50|10=192
SERVER NEW ORDER: 8=FIX.4.2|9=113|35=9|34=180|49=DTL|52=20240129-06:02:41.550|56=OPS_CANDIDATE_1_8918|11=97|37=NONE|39=8|41=96|58=Unknown order id|10=134|
CLIENT ORDER CANCEL REQUEST: 8=FIX.4.2|35=F|49=OPS_CANDIDATE_1_8918|56=DTL|34=100|52=20240129-06:02:41|41=98|37=99|11=99|55=AAPL|54=5|38=50|60=20240129-06:02:41|10=230
SERVER ORDER CANCEL REQUEST: 8=FIX.4.2|9=124|35=8|34=181|49=DTL|52=20240129-06:02:41.763|56=OPS_CANDIDATE_1_8918|11=98|37=02086|38=50|39=0|40=2|44=30|54=5|55=AAPL|150=0|10=018|8=FIX.4.2|9=139|35=8|34=182|49=DTL|52=20240129-06:02:41.902|56=OPS_CANDIDATE_1_8918|11=91|17=03302|30=NSDQ|31=151.84|32=4|37=02081|39=2|54=5|55=AAPL|150=2|10=064|8=FIX.4.2|9=138|35=8|34=183|49=DTL|52=20240129-06:02:41.902|56=OPS_CANDIDATE_1_8918|11=94|17=03303|30=NSDQ|31=31.81|32=10|37=02083|39=1|54=5|55=BAC|150=1|10=227|8=FIX.4.2|9=140|35=8|34=184|49=DTL|52=20240129-06:02:41.902|56=OPS_CANDIDATE_1_8918|11=95|17=03304|30=NSDQ|31=241.04|32=83|37=02084|39=2|54=2|55=MSFT|150=2|10=139|8=FIX.4.2|9=140|35=8|34=185|49=DTL|52=20240129-06:02:41.902|56=OPS_CANDIDATE_1_8918|11=98|17=03305|30=NSDQ|31=150.91|32=50|37=02086|39=2|54=5|55=AAPL|150=2|10=120|
CLIENT NEW ORDER: 8=FIX.4.2|35=D|49=OPS_CANDIDATE_1_8918|56=DTL|34=101|52=20240129-06:02:42|11=100|21=1|55=AAPL|54=2|60=20240129-06:02:42|40=1|38=49|10=130
SERVER NEW ORDER: 8=FIX.4.2|9=113|35=9|34=186|49=DTL|52=20240129-06:02:41.975|56=OPS_CANDIDATE_1_8918|11=99|37=NONE|39=8|41=98|58=Unknown order id|10=155|
CLIENT ORDER CANCEL REQUEST: 8=FIX.4.2|35=F|49=OPS_CANDIDATE_1_8918|56=DTL|34=102|52=20240129-06:02:42|41=100|37=101|11=101|55=AAPL|54=2|38=49|60=20240129-06:02:42|10=079
SERVER ORDER CANCEL REQUEST: 8=FIX.4.2|9=124|35=8|34=187|49=DTL|52=20240129-06:02:42.189|56=OPS_CANDIDATE_1_8918|11=100|37=02087|38=49|39=0|40=1|44=0|54=2|55=AAPL|150=0|10=013|
CLIENT NEW ORDER: 8=FIX.4.2|35=D|49=OPS_CANDIDATE_1_8918|56=DTL|34=103|52=20240129-06:02:42|11=102|21=1|55=BAC|54=2|60=20240129-06:02:42|40=1|38=59|10=047
SERVER NEW ORDER: 8=FIX.4.2|9=115|35=9|34=188|49=DTL|52=20240129-06:02:42.402|56=OPS_CANDIDATE_1_8918|11=101|37=NONE|39=8|41=100|58=Unknown order id|10=209|
CLIENT ORDER CANCEL REQUEST: 8=FIX.4.2|35=F|49=OPS_CANDIDATE_1_8918|56=DTL|34=104|52=20240129-06:02:42|41=102|37=103|11=103|55=BAC|54=2|38=59|60=20240129-06:02:42|10=000
SERVER ORDER CANCEL REQUEST: 8=FIX.4.2|9=123|35=8|34=189|49=DTL|52=20240129-06:02:42.615|56=OPS_CANDIDATE_1_8918|11=102|37=02088|38=59|39=0|40=1|44=0|54=2|55=BAC|150=0|10=180|
CLIENT NEW ORDER: 8=FIX.4.2|35=D|49=OPS_CANDIDATE_1_8918|56=DTL|34=105|52=20240129-06:02:42|11=104|21=1|55=AAPL|54=1|60=20240129-06:02:42|40=2|44=30|38=49|10=014
SERVER NEW ORDER: 8=FIX.4.2|9=115|35=9|34=190|49=DTL|52=20240129-06:02:42.828|56=OPS_CANDIDATE_1_8918|11=103|37=NONE|39=8|41=102|58=Unknown order id|10=218|8=FIX.4.2|9=137|35=8|34=191|49=DTL|52=20240129-06:02:42.907|56=OPS_CANDIDATE_1_8918|11=94|17=03306|30=NSDQ|31=31.03|32=2|37=02083|39=2|54=5|55=BAC|150=2|10=183|8=FIX.4.2|9=141|35=8|34=192|49=DTL|52=20240129-06:02:42.908|56=OPS_CANDIDATE_1_8918|11=100|17=03307|30=NSDQ|31=152.01|32=30|37=02087|39=1|54=2|55=AAPL|150=1|10=147|8=FIX.4.2|9=139|35=8|34=193|49=DTL|52=20240129-06:02:42.908|56=OPS_CANDIDATE_1_8918|11=102|17=03308|30=NSDQ|31=32.17|32=59|37=02088|39=2|54=2|55=BAC|150=2|10=040|
CLIENT NEW ORDER: 8=FIX.4.2|35=D|49=OPS_CANDIDATE_1_8918|56=DTL|34=106|52=20240129-06:02:43|11=105|21=1|55=AAPL|54=5|60=20240129-06:02:43|40=2|44=30|38=33|10=015
SERVER NEW ORDER: 8=FIX.4.2|9=125|35=8|34=194|49=DTL|52=20240129-06:02:43.041|56=OPS_CANDIDATE_1_8918|11=104|37=02089|38=49|39=0|40=2|44=30|54=1|55=AAPL|150=0|10=057|
CLIENT NEW ORDER: 8=FIX.4.2|35=D|49=OPS_CANDIDATE_1_8918|56=DTL|34=107|52=20240129-06:02:43|11=106|21=1|55=MSFT|54=2|60=20240129-06:02:43|40=2|44=20|38=71|10=043
SERVER NEW ORDER: 8=FIX.4.2|9=125|35=8|34=195|49=DTL|52=20240129-06:02:43.254|56=OPS_CANDIDATE_1_8918|11=105|37=02090|38=33|39=0|40=2|44=30|54=5|55=AAPL|150=0|10=054|
CLIENT ORDER CANCEL REQUEST: 8=FIX.4.2|35=F|49=OPS_CANDIDATE_1_8918|56=DTL|34=108|52=20240129-06:02:43|41=106|37=107|11=107|55=MSFT|54=2|38=71|60=20240129-06:02:43|10=128
SERVER ORDER CANCEL REQUEST: 8=FIX.4.2|9=97|35=8|34=196|49=DTL|52=20240129-06:02:43.467|56=OPS_CANDIDATE_1_8918|11=106|39=8|58=Unlucky|150=8|10=139|
CLIENT NEW ORDER: 8=FIX.4.2|35=D|49=OPS_CANDIDATE_1_8918|56=DTL|34=109|52=20240129-06:02:43|11=108|21=1|55=AAPL|54=5|60=20240129-06:02:43|40=1|38=60|10=144
SERVER NEW ORDER: 8=FIX.4.2|9=115|35=9|34=197|49=DTL|52=20240129-06:02:43.679|56=OPS_CANDIDATE_1_8918|11=107|37=NONE|39=8|41=106|58=Unknown order id|10=238|
CLIENT NEW ORDER: 8=FIX.4.2|35=D|49=OPS_CANDIDATE_1_8918|56=DTL|34=110|52=20240129-06:02:43|11=109|21=1|55=MSFT|54=5|60=20240129-06:02:43|40=2|44=10|38=56|10=045
SERVER NEW ORDER: 8=FIX.4.2|9=124|35=8|34=198|49=DTL|52=20240129-06:02:43.892|56=OPS_CANDIDATE_1_8918|11=108|37=02092|38=60|39=0|40=1|44=0|54=5|55=AAPL|150=0|10=017|8=FIX.4.2|9=141|35=8|34=199|49=DTL|52=20240129-06:02:43.912|56=OPS_CANDIDATE_1_8918|11=100|17=03309|30=NSDQ|31=151.36|32=19|37=02087|39=2|54=2|55=AAPL|150=2|10=168|8=FIX.4.2|9=140|35=8|34=200|49=DTL|52=20240129-06:02:43.912|56=OPS_CANDIDATE_1_8918|11=104|17=03310|30=NSDQ|31=150.98|32=8|37=02089|39=1|54=1|55=AAPL|150=1|10=102|8=FIX.4.2|9=141|35=8|34=201|49=DTL|52=20240129-06:02:43.912|56=OPS_CANDIDATE_1_8918|11=105|17=03311|30=NSDQ|31=152.11|32=23|37=02090|39=1|54=5|55=AAPL|150=1|10=134|8=FIX.4.2|9=138|35=8|34=202|49=DTL|52=20240129-06:02:43.912|56=OPS_CANDIDATE_1_8918|11=108|17=03312|30=NSDQ|31=150|32=60|37=02092|39=2|54=5|55=AAPL|150=2|10=004|
CLIENT NEW ORDER: 8=FIX.4.2|35=D|49=OPS_CANDIDATE_1_8918|56=DTL|34=111|52=20240129-06:02:44|11=110|21=1|55=MSFT|54=5|60=20240129-06:02:44|40=2|44=10|38=71|10=037
SERVER NEW ORDER: 8=FIX.4.2|9=125|35=8|34=203|49=DTL|52=20240129-06:02:44.105|56=OPS_CANDIDATE_1_8918|11=109|37=02093|38=56|39=0|40=2|44=10|54=5|55=MSFT|150=0|10=078|
CLIENT ORDER CANCEL REQUEST: 8=FIX.4.2|35=F|49=OPS_CANDIDATE_1_8918|56=DTL|34=112|52=20240129-06:02:44|41=110|37=111|11=111|55=MSFT|54=5|38=71|60=20240129-06:02:44|10=113
SERVER ORDER CANCEL REQUEST: 8=FIX.4.2|9=125|35=8|34=204|49=DTL|52=20240129-06:02:44.319|56=OPS_CANDIDATE_1_8918|11=110|37=02094|38=71|39=0|40=2|44=10|54=5|55=MSFT|150=0|10=076|
CLIENT NEW ORDER: 8=FIX.4.2|35=D|49=OPS_CANDIDATE_1_8918|56=DTL|34=113|52=20240129-06:02:44|11=112|21=1|55=MSFT|54=1|60=20240129-06:02:44|40=2|44=10|38=45|10=038
SERVER NEW ORDER: 8=FIX.4.2|9=115|35=9|34=205|49=DTL|52=20240129-06:02:44.531|56=OPS_CANDIDATE_1_8918|11=111|37=NONE|39=8|41=110|58=Unknown order id|10=206|
CLIENT NEW ORDER: 8=FIX.4.2|35=D|49=OPS_CANDIDATE_1_8918|56=DTL|34=114|52=20240129-06:02:44|11=113|21=1|55=AAPL|54=2|60=20240129-06:02:44|40=2|44=40|38=84|10=019
SERVER NEW ORDER: 8=FIX.4.2|9=125|35=8|34=206|49=DTL|52=20240129-06:02:44.744|56=OPS_CANDIDATE_1_8918|11=112|37=02095|38=45|39=0|40=2|44=10|54=1|55=MSFT|150=0|10=080|8=FIX.4.2|9=141|35=8|34=207|49=DTL|52=20240129-06:02:44.915|56=OPS_CANDIDATE_1_8918|11=104|17=03313|30=NSDQ|31=150.43|32=41|37=02089|39=2|54=1|55=AAPL|150=2|10=154|8=FIX.4.2|9=140|35=8|34=208|49=DTL|52=20240129-06:02:44.915|56=OPS_CANDIDATE_1_8918|11=105|17=03314|30=NSDQ|31=152.45|32=7|37=02090|39=1|54=5|55=AAPL|150=1|10=108|8=FIX.4.2|9=141|35=8|34=209|49=DTL|52=20240129-06:02:44.916|56=OPS_CANDIDATE_1_8918|11=109|17=03315|30=NSDQ|31=238.32|32=33|37=02093|39=1|54=5|55=MSFT|150=1|10=195|8=FIX.4.2|9=141|35=8|34=210|49=DTL|52=20240129-06:02:44.916|56=OPS_CANDIDATE_1_8918|11=110|17=03316|30=NSDQ|31=237.08|32=71|37=02094|39=2|54=5|55=MSFT|150=2|10=187|8=FIX.4.2|9=141|35=8|34=211|49=DTL|52=20240129-06:02:44.916|56=OPS_CANDIDATE_1_8918|11=112|17=03317|30=NSDQ|31=239.84|32=39|37=02095|39=1|54=1|55=MSFT|150=1|10=196|
CLIENT NEW ORDER: 8=FIX.4.2|35=D|49=OPS_CANDIDATE_1_8918|56=DTL|34=115|52=20240129-06:02:45|11=114|21=1|55=BAC|54=5|60=20240129-06:02:45|40=1|38=2|10=002
SERVER NEW ORDER: 8=FIX.4.2|9=125|35=8|34=212|49=DTL|52=20240129-06:02:44.957|56=OPS_CANDIDATE_1_8918|11=113|37=02096|38=84|39=0|40=2|44=40|54=2|55=AAPL|150=0|10=064|
CLIENT ORDER CANCEL REQUEST: 8=FIX.4.2|35=F|49=OPS_CANDIDATE_1_8918|56=DTL|34=116|52=20240129-06:02:45|41=114|37=115|11=115|55=BAC|54=5|38=2|60=20240129-06:02:45|10=217
SERVER ORDER CANCEL REQUEST: 8=FIX.4.2|9=122|35=8|34=213|49=DTL|52=20240129-06:02:45.171|56=OPS_CANDIDATE_1_8918|11=114|37=02097|38=2|39=0|40=1|44=0|54=5|55=BAC|150=0|10=113|
CLIENT NEW ORDER: 8=FIX.4.2|35=D|49=OPS_CANDIDATE_1_8918|56=DTL|34=117|52=20240129-06:02:45|11=116|21=1|55=MSFT|54=2|60=20240129-06:02:45|40=1|38=94|10=178
SERVER NEW ORDER: 8=FIX.4.2|9=115|35=9|34=214|49=DTL|52=20240129-06:02:45.383|56=OPS_CANDIDATE_1_8918|11=115|37=NONE|39=8|41=114|58=Unknown order id|10=220|
CLIENT NEW ORDER: 8=FIX.4.2|35=D|49=OPS_CANDIDATE_1_8918|56=DTL|34=118|52=20240129-06:02:45|11=117|21=1|55=BAC|54=1|60=20240129-06:02:45|40=2|44=50|38=89|10=202
SERVER NEW ORDER: 8=FIX.4.2|9=124|35=8|34=215|49=DTL|52=20240129-06:02:45.596|56=OPS_CANDIDATE_1_8918|11=116|37=02098|38=94|39=0|40=1|44=0|54=2|55=MSFT|150=0|10=047|
CLIENT ORDER CANCEL REQUEST: 8=FIX.4.2|35=F|49=OPS_CANDIDATE_1_8918|56=DTL|34=119|52=20240129-06:02:45|41=117|37=118|11=118|55=BAC|54=1|38=89|60=20240129-06:02:45|10=032
SERVER ORDER CANCEL REQUEST: 8=FIX.4.2|9=124|35=8|34=216|49=DTL|52=20240129-06:02:45.809|56=OPS_CANDIDATE_1_8918|11=117|37=02099|38=89|39=0|40=2|44=50|54=1|55=BAC|150=0|10=244|8=FIX.4.2|9=140|35=8|34=217|49=DTL|52=20240129-06:02:45.920|56=OPS_CANDIDATE_1_8918|11=105|17=03318|30=NSDQ|31=152.81|32=3|37=02090|39=2|54=5|55=AAPL|150=2|10=107|8=FIX.4.2|9=140|35=8|34=218|49=DTL|52=20240129-06:02:45.920|56=OPS_CANDIDATE_1_8918|11=109|17=03319|30=NSDQ|31=241.84|32=7|37=02093|39=1|54=5|55=MSFT|150=1|10=148|8=FIX.4.2|9=140|35=8|34=219|49=DTL|52=20240129-06:02:45.920|56=OPS_CANDIDATE_1_8918|11=112|17=03320|30=NSDQ|31=239.97|32=4|37=02095|39=1|54=1|55=MSFT|150=1|10=141|8=FIX.4.2|9=141|35=8|34=220|49=DTL|52=20240129-06:02:45.920|56=OPS_CANDIDATE_1_8918|11=113|17=03321|30=NSDQ|31=152.35|32=56|37=02096|39=1|54=2|55=AAPL|150=1|10=151|8=FIX.4.2|9=138|35=8|34=221|49=DTL|52=20240129-06:02:45.920|56=OPS_CANDIDATE_1_8918|11=114|17=03322|30=NSDQ|31=30.16|32=2|37=02097|39=2|54=5|55=BAC|150=2|10=223|8=FIX.4.2|9=140|35=8|34=222|49=DTL|52=20240129-06:02:45.920|56=OPS_CANDIDATE_1_8918|11=116|17=03323|30=NSDQ|31=241.03|32=9|37=02098|39=1|54=2|55=MSFT|150=1|10=131|8=FIX.4.2|9=138|35=8|34=223|49=DTL|52=20240129-06:02:45.921|56=OPS_CANDIDATE_1_8918|11=117|17=03324|30=NSDQ|31=33.8|32=89|37=02099|39=2|54=1|55=BAC|150=2|10=248|
CLIENT NEW ORDER: 8=FIX.4.2|35=D|49=OPS_CANDIDATE_1_8918|56=DTL|34=120|52=20240129-06:02:46|11=119|21=1|55=BAC|54=5|60=20240129-06:02:46|40=1|38=35|10=059
SERVER NEW ORDER: 8=FIX.4.2|9=115|35=9|34=224|49=DTL|52=20240129-06:02:46.022|56=OPS_CANDIDATE_1_8918|11=118|37=NONE|39=8|41=117|58=Unknown order id|10=218|
CLIENT ORDER CANCEL REQUEST: 8=FIX.4.2|35=F|49=OPS_CANDIDATE_1_8918|56=DTL|34=121|52=20240129-06:02:46|41=119|37=120|11=120|55=BAC|54=5|38=35|60=20240129-06:02:46|10=010
SERVER ORDER CANCEL REQUEST: 8=FIX.4.2|9=123|35=8|34=225|49=DTL|52=20240129-06:02:46.236|56=OPS_CANDIDATE_1_8918|11=119|37=02100|38=35|39=0|40=1|44=0|54=5|55=BAC|150=0|10=164|
CLIENT NEW ORDER: 8=FIX.4.2|35=D|49=OPS_CANDIDATE_1_8918|56=DTL|34=122|52=20240129-06:02:46|11=121|21=1|55=MSFT|54=1|60=20240129-06:02:46|40=2|44=10|38=52|10=040
SERVER NEW ORDER: 8=FIX.4.2|9=115|35=9|34=226|49=DTL|52=20240129-06:02:46.448|56=OPS_CANDIDATE_1_8918|11=120|37=NONE|39=8|41=119|58=Unknown order id|10=227|
CLIENT NEW ORDER: 8=FIX.4.2|35=D|49=OPS_CANDIDATE_1_8918|56=DTL|34=123|52=20240129-06:02:46|11=122|21=1|55=MSFT|54=1|60=20240129-06:02:46|40=1|38=10|10=161
SERVER NEW ORDER: 8=FIX.4.2|9=125|35=8|34=227|49=DTL|52=20240129-06:02:46.661|56=OPS_CANDIDATE_1_8918|11=121|37=02101|38=52|39=0|40=2|44=10|54=1|55=MSFT|150=0|10=069|
CLIENT NEW ORDER: 8=FIX.4.2|35=D|49=OPS_CANDIDATE_1_8918|56=DTL|34=124|52=20240129-06:02:46|11=123|21=1|55=BAC|54=1|60=20240129-06:02:46|40=1|38=49|10=059
SERVER NEW ORDER: 8=FIX.4.2|9=124|35=8|34=228|49=DTL|52=20240129-06:02:46.874|56=OPS_CANDIDATE_1_8918|11=122|37=02102|38=10|39=0|40=1|44=0|54=1|55=MSFT|150=0|10=021|8=FIX.4.2|9=141|35=8|34=229|49=DTL|52=20240129-06:02:46.924|56=OPS_CANDIDATE_1_8918|11=109|17=03325|30=NSDQ|31=238.76|32=14|37=02093|39=1|54=5|55=MSFT|150=1|10=206|8=FIX.4.2|9=140|35=8|34=230|49=DTL|52=20240129-06:02:46.925|56=OPS_CANDIDATE_1_8918|11=112|17=03326|30=NSDQ|31=240.82|32=2|37=02095|39=2|54=1|55=MSFT|150=2|10=132|8=FIX.4.2|9=141|35=8|34=231|49=DTL|52=20240129-06:02:46.925|56=OPS_CANDIDATE_1_8918|11=113|17=03327|30=NSDQ|31=152.12|32=19|37=02096|39=1|54=2|55=AAPL|150=1|10=159|8=FIX.4.2|9=141|35=8|34=232|49=DTL|52=20240129-06:02:46.925|56=OPS_CANDIDATE_1_8918|11=116|17=03328|30=NSDQ|31=240.09|32=85|37=02098|39=2|54=2|55=MSFT|150=2|10=203|8=FIX.4.2|9=139|35=8|34=233|49=DTL|52=20240129-06:02:46.925|56=OPS_CANDIDATE_1_8918|11=119|17=03329|30=NSDQ|31=32.64|32=35|37=02100|39=2|54=5|55=BAC|150=2|10=033|8=FIX.4.2|9=141|35=8|34=234|49=DTL|52=20240129-06:02:46.925|56=OPS_CANDIDATE_1_8918|11=121|17=03330|30=NSDQ|31=242.81|32=52|37=02101|39=2|54=1|55=MSFT|150=2|10=174|8=FIX.4.2|9=141|35=8|34=235|49=DTL|52=20240129-06:02:46.925|56=OPS_CANDIDATE_1_8918|11=122|17=03331|30=NSDQ|31=238.65|32=10|37=02102|39=2|54=1|55=MSFT|150=2|10=179|
CLIENT NEW ORDER: 8=FIX.4.2|35=D|49=OPS_CANDIDATE_1_8918|56=DTL|34=125|52=20240129-06:02:47|11=124|21=1|55=AAPL|54=1|60=20240129-06:02:47|40=2|44=30|38=24|10=021
SERVER NEW ORDER: 8=FIX.4.2|9=123|35=8|34=236|49=DTL|52=20240129-06:02:47.087|56=OPS_CANDIDATE_1_8918|11=123|37=02103|38=49|39=0|40=1|44=0|54=1|55=BAC|150=0|10=170|
CLIENT ORDER CANCEL REQUEST: 8=FIX.4.2|35=F|49=OPS_CANDIDATE_1_8918|56=DTL|34=126|52=20240129-06:02:47|41=124|37=125|11=125|55=AAPL|54=1|38=24|60=20240129-06:02:47|10=105
SERVER ORDER CANCEL REQUEST: 8=FIX.4.2|9=125|35=8|34=237|49=DTL|52=20240129-06:02:47.300|56=OPS_CANDIDATE_1_8918|11=124|37=02104|38=24|39=0|40=2|44=30|54=1|55=AAPL|150=0|10=040|
CLIENT NEW ORDER: 8=FIX.4.2|35=D|49=OPS_CANDIDATE_1_8918|56=DTL|34=127|52=20240129-06:02:47|11=126|21=1|55=MSFT|54=1|60=20240129-06:02:47|40=1|38=74|10=181
SERVER NEW ORDER: 8=FIX.4.2|9=115|35=9|34=238|49=DTL|52=20240129-06:02:47.513|56=OPS_CANDIDATE_1_8918|11=125|37=NONE|39=8|41=124|58=Unknown order id|10=225|
CLIENT NEW ORDER: 8=FIX.4.2|35=D|49=OPS_CANDIDATE_1_8918|56=DTL|34=128|52=20240129-06:02:47|11=127|21=1|55=BAC|54=1|60=20240129-06:02:47|40=1|38=13|10=060
SERVER NEW ORDER: 8=FIX.4.2|9=124|35=8|34=239|49=DTL|52=20240129-06:02:47.726|56=OPS_CANDIDATE_1_8918|11=126|37=02105|38=74|39=0|40=1|44=0|54=1|55=MSFT|150=0|10=037|8=FIX.4.2|9=140|35=8|34=240|49=DTL|52=20240129-06:02:47.929|56=OPS_CANDIDATE_1_8918|11=109|17=03332|30=NSDQ|31=241.35|32=2|37=02093|39=2|54=5|55=MSFT|150=2|10=142|8=FIX.4.2|9=140|35=8|34=241|49=DTL|52=20240129-06:02:47.929|56=OPS_CANDIDATE_1_8918|11=113|17=03333|30=NSDQ|31=152.88|32=1|37=02096|39=1|54=2|55=AAPL|150=1|10=117|8=FIX.4.2|9=139|35=8|34=242|49=DTL|52=20240129-06:02:47.929|56=OPS_CANDIDATE_1_8918|11=123|17=03334|30=NSDQ|31=30.66|32=49|37=02103|39=2|54=1|55=BAC|150=2|10=033|8=FIX.4.2|9=140|35=8|34=243|49=DTL|52=20240129-06:02:47.929|56=OPS_CANDIDATE_1_8918|11=124|17=03335|30=NSDQ|31=151.83|32=1|37=02104|39=1|54=1|55=AAPL|150=1|10=106|8=FIX.4.2|9=141|35=8|34=244|49=DTL|52=20240129-06:02:47.929|56=OPS_CANDIDATE_1_8918|11=126|17=03336|30=NSDQ|31=241.47|32=10|37=02105|39=1|54=1|55=MSFT|150=1|10=188|
CLIENT NEW ORDER: 8=FIX.4.2|35=D|49=OPS_CANDIDATE_1_8918|56=DTL|34=129|52=20240129-06:02:48|11=128|21=1|55=MSFT|54=1|60=20240129-06:02:48|40=1|38=32|10=181
SERVER NEW ORDER: 8=FIX.4.2|9=123|35=8|34=245|49=DTL|52=20240129-06:02:47.939|56=OPS_CANDIDATE_1_8918|11=127|37=02106|38=13|39=0|40=1|44=0|54=1|55=BAC|150=0|10=174|
CLIENT NEW ORDER: 8=FIX.4.2|35=D|49=OPS_CANDIDATE_1_8918|56=DTL|34=130|52=20240129-06:02:48|11=129|21=1|55=MSFT|54=5|60=20240129-06:02:48|40=2|44=10|38=61|10=055
SERVER NEW ORDER: 8=FIX.4.2|9=124|35=8|34=246|49=DTL|52=20240129-06:02:48.153|56=OPS_CANDIDATE_1_8918|11=128|37=02107|38=32|39=0|40=1|44=0|54=1|55=MSFT|150=0|10=028|
CLIENT ORDER CANCEL REQUEST: 8=FIX.4.2|35=F|49=OPS_CANDIDATE_1_8918|56=DTL|34=131|52=20240129-06:02:48|41=129|37=130|11=130|55=MSFT|54=5|38=61|60=20240129-06:02:48|10=133
SERVER ORDER CANCEL REQUEST: 8=FIX.4.2|9=97|35=8|34=247|49=DTL|52=20240129-06:02:48.365|56=OPS_CANDIDATE_1_8918|11=129|39=8|58=Unlucky|150=8|10=143|
CLIENT NEW ORDER: 8=FIX.4.2|35=D|49=OPS_CANDIDATE_1_8918|56=DTL|34=132|52=20240129-06:02:48|11=131|21=1|55=BAC|54=5|60=20240129-06:02:48|40=2|44=50|38=27|10=196
SERVER NEW ORDER: 8=FIX.4.2|9=115|35=9|34=248|49=DTL|52=20240129-06:02:48.578|56=OPS_CANDIDATE_1_8918|11=130|37=NONE|39=8|41=129|58=Unknown order id|10=239|
CLIENT ORDER CANCEL REQUEST: 8=FIX.4.2|35=F|49=OPS_CANDIDATE_1_8918|56=DTL|34=133|52=20240129-06:02:48|41=131|37=132|11=132|55=BAC|54=5|38=27|60=20240129-06:02:48|10=018
SERVER ORDER CANCEL REQUEST: 8=FIX.4.2|9=124|35=8|34=249|49=DTL|52=20240129-06:02:48.791|56=OPS_CANDIDATE_1_8918|11=131|37=02109|38=27|39=0|40=2|44=50|54=5|55=BAC|150=0|10=237|8=FIX.4.2|9=140|35=8|34=250|49=DTL|52=20240129-06:02:48.933|56=OPS_CANDIDATE_1_8918|11=113|17=03337|30=NSDQ|31=151.55|32=3|37=02096|39=1|54=2|55=AAPL|150=1|10=112|8=FIX.4.2|9=141|35=8|34=251|49=DTL|52=20240129-06:02:48.933|56=OPS_CANDIDATE_1_8918|11=124|17=03338|30=NSDQ|31=150.84|32=11|37=02104|39=1|54=1|55=AAPL|150=1|10=154|8=FIX.4.2|9=141|35=8|34=252|49=DTL|52=20240129-06:02:48.933|56=OPS_CANDIDATE_1_8918|11=126|17=03339|30=NSDQ|31=239.33|32=57|37=02105|39=1|54=1|55=MSFT|150=1|10=199|8=FIX.4.2|9=139|35=8|34=253|49=DTL|52=20240129-06:02:48.934|56=OPS_CANDIDATE_1_8918|11=127|17=03340|30=NSDQ|31=34.61|32=13|37=02106|39=2|54=1|55=BAC|150=2|10=026|8=FIX.4.2|9=141|35=8|34=254|49=DTL|52=20240129-06:02:48.934|56=OPS_CANDIDATE_1_8918|11=128|17=03341|30=NSDQ|31=242.08|32=32|37=02107|39=2|54=1|55=MSFT|150=2|10=190|8=FIX.4.2|9=139|35=8|34=255|49=DTL|52=20240129-06:02:48.934|56=OPS_CANDIDATE_1_8918|11=131|17=03342|30=NSDQ|31=33.83|32=25|37=02109|39=1|54=5|55=BAC|150=1|10=036|
CLIENT NEW ORDER: 8=FIX.4.2|35=D|49=OPS_CANDIDATE_1_8918|56=DTL|34=134|52=20240129-06:02:49|11=133|21=1|55=MSFT|54=2|60=20240129-06:02:49|40=1|38=2|10=125
SERVER NEW ORDER: 8=FIX.4.2|9=115|35=9|34=256|49=DTL|52=20240129-06:02:49.004|56=OPS_CANDIDATE_1_8918|11=132|37=NONE|39=8|41=131|58=Unknown order id|10=218|
CLIENT ORDER CANCEL REQUEST: 8=FIX.4.2|35=F|49=OPS_CANDIDATE_1_8918|56=DTL|34=135|52=20240129-06:02:49|41=133|37=134|11=134|55=MSFT|54=2|38=2|60=20240129-06:02:49|10=086
SERVER ORDER CANCEL REQUEST: 8=FIX.4.2|9=123|35=8|34=257|49=DTL|52=20240129-06:02:49.217|56=OPS_CANDIDATE_1_8918|11=133|37=02110|38=2|39=0|40=1|44=0|54=2|55=MSFT|150=0|10=227|
CLIENT NEW ORDER: 8=FIX.4.2|35=D|49=OPS_CANDIDATE_1_8918|56=DTL|34=136|52=20240129-06:02:49|11=135|21=1|55=BAC|54=1|60=20240129-06:02:49|40=2|44=50|38=31|10=197
SERVER NEW ORDER: 8=FIX.4.2|9=115|35=9|34=258|49=DTL|52=20240129-06:02:49.430|56=OPS_CANDIDATE_1_8918|11=134|37=NONE|39=8|41=133|58=Unknown order id|10=227|
CLIENT ORDER CANCEL REQUEST: 8=FIX.4.2|35=F|49=OPS_CANDIDATE_1_8918|56=DTL|34=137|52=20240129-06:02:49|41=135|37=136|11=136|55=BAC|54=1|38=31|60=20240129-06:02:49|10=027
SERVER ORDER CANCEL REQUEST: 8=FIX.4.2|9=124|35=8|34=259|49=DTL|52=20240129-06:02:49.643|56=OPS_CANDIDATE_1_8918|11=135|37=02111|38=31|39=0|40=2|44=50|54=1|55=BAC|150=0|10=223|
CLIENT NEW ORDER: 8=FIX.4.2|35=D|49=OPS_CANDIDATE_1_8918|56=DTL|34=138|52=20240129-06:02:49|11=137|21=1|55=AAPL|54=5|60=20240129-06:02:49|40=1|38=90|10=163
SERVER NEW ORDER: 8=FIX.4.2|9=115|35=9|34=260|49=DTL|52=20240129-06:02:49.856|56=OPS_CANDIDATE_1_8918|11=136|37=NONE|39=8|41=135|58=Unknown order id|10=236|8=FIX.4.2|9=140|35=8|34=261|49=DTL|52=20240129-06:02:49.939|56=OPS_CANDIDATE_1_8918|11=113|17=03343|30=NSDQ|31=151.95|32=2|37=02096|39=1|54=2|55=AAPL|150=1|10=121|8=FIX.4.2|9=141|35=8|34=262|49=DTL|52=20240129-06:02:49.939|56=OPS_CANDIDATE_1_8918|11=124|17=03344|30=NSDQ|31=151.87|32=12|37=02104|39=2|54=1|55=AAPL|150=2|10=167|8=FIX.4.2|9=140|35=8|34=263|49=DTL|52=20240129-06:02:49.940|56=OPS_CANDIDATE_1_8918|11=126|17=03345|30=NSDQ|31=237.07|32=7|37=02105|39=2|54=1|55=MSFT|150=2|10=144|8=FIX.4.2|9=138|35=8|34=264|49=DTL|52=20240129-06:02:49.940|56=OPS_CANDIDATE_1_8918|11=131|17=03346|30=NSDQ|31=31.47|32=1|37=02109|39=1|54=5|55=BAC|150=1|10=237|8=FIX.4.2|9=140|35=8|34=265|49=DTL|52=20240129-06:02:49.940|56=OPS_CANDIDATE_1_8918|11=133|17=03347|30=NSDQ|31=242.15|32=2|37=02110|39=2|54=2|55=MSFT|150=2|10=133|8=FIX.4.2|9=139|35=8|34=266|49=DTL|52=20240129-06:02:49.940|56=OPS_CANDIDATE_1_8918|11=135|17=03348|30=NSDQ|31=33.36|32=28|37=02111|39=1|54=1|55=BAC|150=1|10=036|
CLIENT NEW ORDER: 8=FIX.4.2|35=D|49=OPS_CANDIDATE_1_8918|56=DTL|34=139|52=20240129-06:02:50|11=138|21=1|55=MSFT|54=2|60=20240129-06:02:50|40=1|38=10|10=166
SERVER NEW ORDER: 8=FIX.4.2|9=124|35=8|34=267|49=DTL|52=20240129-06:02:50.068|56=OPS_CANDIDATE_1_8918|11=137|37=02112|38=90|39=0|40=1|44=0|54=5|55=AAPL|150=0|10=005|
CLIENT NEW ORDER: 8=FIX.4.2|35=D|49=OPS_CANDIDATE_1_8918|56=DTL|34=140|52=20240129-06:02:50|11=139|21=1|55=BAC|54=2|60=20240129-06:02:50|40=2|44=60|38=94|10=191
SERVER NEW ORDER: 8=FIX.4.2|9=124|35=8|34=268|49=DTL|52=20240129-06:02:50.281|56=OPS_CANDIDATE_1_8918|11=138|37=02113|38=10|39=0|40=1|44=0|54=2|55=MSFT|150=0|10=022|
CLIENT NEW ORDER: 8=FIX.4.2|35=D|49=OPS_CANDIDATE_1_8918|56=DTL|34=141|52=20240129-06:02:50|11=140|21=1|55=BAC|54=5|60=20240129-06:02:50|40=1|38=82|10=048
SERVER NEW ORDER: 8=FIX.4.2|9=124|35=8|34=269|49=DTL|52=20240129-06:02:50.494|56=OPS_CANDIDATE_1_8918|11=139|37=02114|38=94|39=0|40=2|44=60|54=2|55=BAC|150=0|10=238|
CLIENT ORDER CANCEL REQUEST: 8=FIX.4.2|35=F|49=OPS_CANDIDATE_1_8918|56=DTL|34=142|52=20240129-06:02:50|41=140|37=141|11=141|55=BAC|54=5|38=82|60=20240129-06:02:50|10=005
SERVER ORDER CANCEL REQUEST: 8=FIX.4.2|9=123|35=8|34=270|49=DTL|52=20240129-06:02:50.707|56=OPS_CANDIDATE_1_8918|11=140|37=02115|38=82|39=0|40=1|44=0|54=5|55=BAC|150=0|10=164|
CLIENT NEW ORDER: 8=FIX.4.2|35=D|49=OPS_CANDIDATE_1_8918|56=DTL|34=143|52=20240129-06:02:51|11=142|21=1|55=BAC|54=1|60=20240129-06:02:51|40=1|38=77|10=054
SERVER NEW ORDER: 8=FIX.4.2|9=115|35=9|34=271|49=DTL|52=20240129-06:02:50.920|56=OPS_CANDIDATE_1_8918|11=141|37=NONE|39=8|41=140|58=Unknown order id|10=214|8=FIX.4.2|9=137|35=8|34=272|49=DTL|52=20240129-06:02:50.945|56=OPS_CANDIDATE_1_8918|11=113|17=03349|30=NSDQ|31=151|32=3|37=02096|39=2|54=2|55=AAPL|150=2|10=227|8=FIX.4.2|9=138|35=8|34=273|49=DTL|52=20240129-06:02:50.946|56=OPS_CANDIDATE_1_8918|11=131|17=03350|30=NSDQ|31=31.73|32=1|37=02109|39=2|54=5|55=BAC|150=2|10=231|8=FIX.4.2|9=138|35=8|34=274|49=DTL|52=20240129-06:02:50.946|56=OPS_CANDIDATE_1_8918|11=135|17=03351|30=NSDQ|31=31.11|32=1|37=02111|39=1|54=1|55=BAC|150=1|10=216|8=FIX.4.2|9=141|35=8|34=275|49=DTL|52=20240129-06:02:50.946|56=OPS_CANDIDATE_1_8918|11=137|17=03352|30=NSDQ|31=151.84|32=34|37=02112|39=1|54=5|55=AAPL|150=1|10=166|8=FIX.4.2|9=141|35=8|34=276|49=DTL|52=20240129-06:02:50.946|56=OPS_CANDIDATE_1_8918|11=138|17=03353|30=NSDQ|31=241.94|32=10|37=02113|39=2|54=2|55=MSFT|150=2|10=192|8=FIX.4.2|9=139|35=8|34=277|49=DTL|52=20240129-06:02:50.946|56=OPS_CANDIDATE_1_8918|11=139|17=03354|30=NSDQ|31=31.57|32=56|37=02114|39=1|54=2|55=BAC|150=1|10=043|8=FIX.4.2|9=138|35=8|34=278|49=DTL|52=20240129-06:02:50.947|56=OPS_CANDIDATE_1_8918|11=140|17=03355|30=NSDQ|31=30.1|32=42|37=02115|39=1|54=5|55=BAC|150=1|10=232|
CLIENT ORDER CANCEL REQUEST: 8=FIX.4.2|35=F|49=OPS_CANDIDATE_1_8918|56=DTL|34=144|52=20240129-06:02:51|41=142|37=143|11=143|55=BAC|54=1|38=77|60=20240129-06:02:51|10=015
SERVER ORDER CANCEL REQUEST: 8=FIX.4.2|9=123|35=8|34=279|49=DTL|52=20240129-06:02:51.133|56=OPS_CANDIDATE_1_8918|11=142|37=02116|38=77|39=0|40=1|44=0|54=1|55=BAC|150=0|10=170|
CLIENT NEW ORDER: 8=FIX.4.2|35=D|49=OPS_CANDIDATE_1_8918|56=DTL|34=145|52=20240129-06:02:51|11=144|21=1|55=AAPL|54=2|60=20240129-06:02:51|40=1|38=45|10=142
SERVER NEW ORDER: 8=FIX.4.2|9=115|35=9|34=280|49=DTL|52=20240129-06:02:51.346|56=OPS_CANDIDATE_1_8918|11=143|37=NONE|39=8|41=142|58=Unknown order id|10=221|
CLIENT ORDER CANCEL REQUEST: 8=FIX.4.2|35=F|49=OPS_CANDIDATE_1_8918|56=DTL|34=146|52=20240129-06:02:51|41=144|37=145|11=145|55=AAPL|54=2|38=45|60=20240129-06:02:51|10=107
SERVER ORDER CANCEL REQUEST: 8=FIX.4.2|9=124|35=8|34=281|49=DTL|52=20240129-06:02:51.559|56=OPS_CANDIDATE_1_8918|11=144|37=02117|38=45|39=0|40=1|44=0|54=2|55=AAPL|150=0|10=007|
CLIENT NEW ORDER: 8=FIX.4.2|35=D|49=OPS_CANDIDATE_1_8918|56=DTL|34=147|52=20240129-06:02:51|11=146|21=1|55=BAC|54=2|60=20240129-06:02:51|40=2|44=60|38=74|10=196
SERVER NEW ORDER: 8=FIX.4.2|9=115|35=9|34=282|49=DTL|52=20240129-06:02:51.772|56=OPS_CANDIDATE_1_8918|11=145|37=NONE|39=8|41=144|58=Unknown order id|10=230|8=FIX.4.2|9=138|35=8|34=283|49=DTL|52=20240129-06:02:51.952|56=OPS_CANDIDATE_1_8918|11=135|17=03356|30=NSDQ|31=30.39|32=2|37=02111|39=2|54=1|55=BAC|150=2|10=231|8=FIX.4.2|9=141|35=8|34=284|49=DTL|52=20240129-06:02:51.953|56=OPS_CANDIDATE_1_8918|11=137|17=03357|30=NSDQ|31=150.52|32=56|37=02112|39=2|54=5|55=AAPL|150=2|10=170|8=FIX.4.2|9=139|35=8|34=285|49=DTL|52=20240129-06:02:51.953|56=OPS_CANDIDATE_1_8918|11=139|17=03358|30=NSDQ|31=31.85|32=31|37=02114|39=1|54=2|55=BAC|150=1|10=039|8=FIX.4.2|9=139|35=8|34=286|49=DTL|52=20240129-06:02:51.953|56=OPS_CANDIDATE_1_8918|11=140|17=03359|30=NSDQ|31=34.87|32=40|37=02115|39=2|54=5|55=BAC|150=2|10=044|8=FIX.4.2|9=139|35=8|34=287|49=DTL|52=20240129-06:02:51.953|56=OPS_CANDIDATE_1_8918|11=142|17=03360|30=NSDQ|31=31.84|32=77|37=02116|39=2|54=1|55=BAC|150=2|10=040|8=FIX.4.2|9=141|35=8|34=288|49=DTL|52=20240129-06:02:51.953|56=OPS_CANDIDATE_1_8918|11=144|17=03361|30=NSDQ|31=151.96|32=45|37=02117|39=2|54=2|55=AAPL|150=2|10=176|
CLIENT ORDER CANCEL REQUEST: 8=FIX.4.2|35=F|49=OPS_CANDIDATE_1_8918|56=DTL|34=148|52=20240129-06:02:52|41=146|37=147|11=147|55=BAC|54=2|38=74|60=20240129-06:02:52|10=031
SERVER ORDER CANCEL REQUEST: 8=FIX.4.2|9=124|35=8|34=289|49=DTL|52=20240129-06:02:51.985|56=OPS_CANDIDATE_1_8918|11=146|37=02118|38=74|39=0|40=2|44=60|54=2|55=BAC|150=0|10=246|
CLIENT NEW ORDER: 8=FIX.4.2|35=D|49=OPS_CANDIDATE_1_8918|56=DTL|34=149|52=20240129-06:02:52|11=148|21=1|55=MSFT|54=5|60=20240129-06:02:52|40=2|44=10|38=63|10=058
SERVER NEW ORDER: 8=FIX.4.2|9=115|35=9|34=290|49=DTL|52=20240129-06:02:52.198|56=OPS_CANDIDATE_1_8918|11=147|37=NONE|39=8|41=146|58=Unknown order id|10=236|
CLIENT NEW ORDER: 8=FIX.4.2|35=D|49=OPS_CANDIDATE_1_8918|56=DTL|34=150|52=20240129-06:02:52|11=149|21=1|55=MSFT|54=2|60=20240129-06:02:52|40=1|38=96|10=179
SERVER NEW ORDER: 8=FIX.4.2|9=125|35=8|34=291|49=DTL|52=20240129-06:02:52.411|56=OPS_CANDIDATE_1_8918|11=148|37=02119|38=63|39=0|40=2|44=10|54=5|55=MSFT|150=0|10=084|
CLIENT ORDER CANCEL REQUEST: 8=FIX.4.2|35=F|49=OPS_CANDIDATE_1_8918|56=DTL|34=151|52=20240129-06:02:52|41=149|37=150|11=150|55=MSFT|54=2|38=96|60=20240129-06:02:52|10=136
SERVER ORDER CANCEL REQUEST: 8=FIX.4.2|9=124|35=8|34=292|49=DTL|52=20240129-06:02:52.624|56=OPS_CANDIDATE_1_8918|11=149|37=02120|38=96|39=0|40=1|44=0|54=2|55=MSFT|150=0|10=036|
CLIENT NEW ORDER: 8=FIX.4.2|35=D|49=OPS_CANDIDATE_1_8918|56=DTL|34=152|52=20240129-06:02:52|11=151|21=1|55=AAPL|54=1|60=20240129-06:02:52|40=2|44=30|38=21|10=010
SERVER NEW ORDER: 8=FIX.4.2|9=115|35=9|34=293|49=DTL|52=20240129-06:02:52.837|56=OPS_CANDIDATE_1_8918|11=150|37=NONE|39=8|41=149|58=Unknown order id|10=236|8=FIX.4.2|9=138|35=8|34=294|49=DTL|52=20240129-06:02:52.959|56=OPS_CANDIDATE_1_8918|11=139|17=03362|30=NSDQ|31=30.74|32=7|37=02114|39=2|54=2|55=BAC|150=2|10=250|8=FIX.4.2|9=139|35=8|34=295|49=DTL|52=20240129-06:02:52.960|56=OPS_CANDIDATE_1_8918|11=146|17=03363|30=NSDQ|31=33.26|32=74|37=02118|39=2|54=2|55=BAC|150=2|10=043|8=FIX.4.2|9=141|35=8|34=296|49=DTL|52=20240129-06:02:52.960|56=OPS_CANDIDATE_1_8918|11=148|17=03364|30=NSDQ|31=237.01|32=63|37=02119|39=2|54=5|55=MSFT|150=2|10=205|8=FIX.4.2|9=138|35=8|34=297|49=DTL|52=20240129-06:02:52.960|56=OPS_CANDIDATE_1_8918|11=149|17=03365|30=NSDQ|31=242|32=96|37=02120|39=2|54=2|55=MSFT|150=2|10=062|
CLIENT NEW ORDER: 8=FIX.4.2|35=D|49=OPS_CANDIDATE_1_8918|56=DTL|34=153|52=20240129-06:02:53|11=152|21=1|55=AAPL|54=2|60=20240129-06:02:53|40=2|44=40|38=28|10=023
SERVER NEW ORDER: 8=FIX.4.2|9=125|35=8|34=298|49=DTL|52=20240129-06:02:53.050|56=OPS_CANDIDATE_1_8918|11=151|37=02121|38=21|39=0|40=2|44=30|54=1|55=AAPL|150=0|10=042|
CLIENT ORDER CANCEL REQUEST: 8=FIX.4.2|35=F|49=OPS_CANDIDATE_1_8918|56=DTL|34=154|52=20240129-06:02:53|41=152|37=153|11=153|55=AAPL|54=2|38=28|60=20240129-06:02:53|10=108
SERVER ORDER CANCEL REQUEST: 8=FIX.4.2|9=125|35=8|34=299|49=DTL|52=20240129-06:02:53.263|56=OPS_CANDIDATE_1_8918|11=152|37=02122|38=28|39=0|40=2|44=40|54=2|55=AAPL|150=0|10=060|
CLIENT NEW ORDER: 8=FIX.4.2|35=D|49=OPS_CANDIDATE_1_8918|56=DTL|34=155|52=20240129-06:02:53|11=154|21=1|55=BAC|54=2|60=20240129-06:02:53|40=2|44=60|38=88|10=203
SERVER NEW ORDER: 8=FIX.4.2|9=115|35=9|34=300|49=DTL|52=20240129-06:02:53.476|56=OPS_CANDIDATE_1_8918|11=153|37=NONE|39=8|41=152|58=Unknown order id|10=222|
CLIENT ORDER CANCEL REQUEST: 8=FIX.4.2|35=F|49=OPS_CANDIDATE_1_8918|56=DTL|34=156|52=20240129-06:02:53|41=154|37=155|11=155|55=BAC|54=2|38=88|60=20240129-06:02:53|10=034
SERVER ORDER CANCEL REQUEST: 8=FIX.4.2|9=124|35=8|34=301|49=DTL|52=20240129-06:02:53.690|56=OPS_CANDIDATE_1_8918|11=154|37=02123|38=88|39=0|40=2|44=60|54=2|55=BAC|150=0|10=226|
CLIENT NEW ORDER: 8=FIX.4.2|35=D|49=OPS_CANDIDATE_1_8918|56=DTL|34=157|52=20240129-06:02:54|11=156|21=1|55=AAPL|54=5|60=20240129-06:02:54|40=2|44=30|38=59|10=039
SERVER NEW ORDER: 8=FIX.4.2|9=115|35=9|34=302|49=DTL|52=20240129-06:02:53.902|56=OPS_CANDIDATE_1_8918|11=155|37=NONE|39=8|41=154|58=Unknown order id|10=222|8=FIX.4.2|9=141|35=8|34=303|49=DTL|52=20240129-06:02:53.964|56=OPS_CANDIDATE_1_8918|11=151|17=03366|30=NSDQ|31=150.22|32=13|37=02121|39=1|54=1|55=AAPL|150=1|10=146|8=FIX.4.2|9=141|35=8|34=304|49=DTL|52=20240129-06:02:53.964|56=OPS_CANDIDATE_1_8918|11=152|17=03367|30=NSDQ|31=152.15|32=28|37=02122|39=2|54=2|55=AAPL|150=2|10=163|8=FIX.4.2|9=139|35=8|34=305|49=DTL|52=20240129-06:02:53.964|56=OPS_CANDIDATE_1_8918|11=154|17=03368|30=NSDQ|31=32.39|32=88|37=02123|39=2|54=2|55=BAC|150=2|10=048|
CLIENT NEW ORDER: 8=FIX.4.2|35=D|49=OPS_CANDIDATE_1_8918|56=DTL|34=158|52=20240129-06:02:54|11=157|21=1|55=BAC|54=5|60=20240129-06:02:54|40=2|44=50|38=50|10=202
SERVER NEW ORDER: 8=FIX.4.2|9=125|35=8|34=306|49=DTL|52=20240129-06:02:54.115|56=OPS_CANDIDATE_1_8918|11=156|37=02124|38=59|39=0|40=2|44=30|54=5|55=AAPL|150=0|10=058|
CLIENT ORDER CANCEL REQUEST: 8=FIX.4.2|35=F|49=OPS_CANDIDATE_1_8918|56=DTL|34=159|52=20240129-06:02:54|41=157|37=158|11=158|55=BAC|54=5|38=50|60=20240129-06:02:54|10=040
SERVER ORDER CANCEL REQUEST: 8=FIX.4.2|9=97|35=8|34=307|49=DTL|52=20240129-06:02:54.328|56=OPS_CANDIDATE_1_8918|11=157|39=8|58=Unlucky|150=8|10=137|
CLIENT NEW ORDER: 8=FIX.4.2|35=D|49=OPS_CANDIDATE_1_8918|56=DTL|34=160|52=20240129-06:02:54|11=159|21=1|55=BAC|54=1|60=20240129-06:02:54|40=2|44=50|38=48|10=200
SERVER NEW ORDER: 8=FIX.4.2|9=115|35=9|34=308|49=DTL|52=20240129-06:02:54.541|56=OPS_CANDIDATE_1_8918|11=158|37=NONE|39=8|41=157|58=Unknown order id|10=234|
CLIENT ORDER CANCEL REQUEST: 8=FIX.4.2|35=F|49=OPS_CANDIDATE_1_8918|56=DTL|34=161|52=20240129-06:02:54|41=159|37=160|11=160|55=BAC|54=1|38=48|60=20240129-06:02:54|10=024
SERVER ORDER CANCEL REQUEST: 8=FIX.4.2|9=124|35=8|34=309|49=DTL|52=20240129-06:02:54.753|56=OPS_CANDIDATE_1_8918|11=159|37=02126|38=48|39=0|40=2|44=50|54=1|55=BAC|150=0|10=237|
CLIENT NEW ORDER: 8=FIX.4.2|35=D|49=OPS_CANDIDATE_1_8918|56=DTL|34=162|52=20240129-06:02:55|11=161|21=1|55=MSFT|54=2|60=20240129-06:02:55|40=2|44=20|38=93|10=055
SERVER NEW ORDER: 8=FIX.4.2|9=140|35=8|34=310|49=DTL|52=20240129-06:02:54.969|56=OPS_CANDIDATE_1_8918|11=151|17=03369|30=NSDQ|31=150.19|32=8|37=02121|39=2|54=1|55=AAPL|150=2|10=116|8=FIX.4.2|9=141|35=8|34=311|49=DTL|52=20240129-06:02:54.969|56=OPS_CANDIDATE_1_8918|11=156|17=03370|30=NSDQ|31=151.26|32=30|37=02124|39=1|54=5|55=AAPL|150=1|10=162|8=FIX.4.2|9=139|35=8|34=312|49=DTL|52=20240129-06:02:54.969|56=OPS_CANDIDATE_1_8918|11=159|17=03371|30=NSDQ|31=34.33|32=48|37=02126|39=2|54=1|55=BAC|150=2|10=045|8=FIX.4.2|9=115|35=9|34=313|49=DTL|52=20240129-06:02:54.969|56=OPS_CANDIDATE_1_8918|11=160|37=NONE|39=8|41=159|58=Unknown order id|10=239|
CLIENT ORDER CANCEL REQUEST: 8=FIX.4.2|35=F|49=OPS_CANDIDATE_1_8918|56=DTL|34=163|52=20240129-06:02:55|41=161|37=162|11=162|55=MSFT|54=2|38=93|60=20240129-06:02:55|10=142
SERVER ORDER CANCEL REQUEST: 8=FIX.4.2|9=125|35=8|34=314|49=DTL|52=20240129-06:02:55.179|56=OPS_CANDIDATE_1_8918|11=161|37=02127|38=93|39=0|40=2|44=20|54=2|55=MSFT|150=0|10=089|
CLIENT NEW ORDER: 8=FIX.4.2|35=D|49=OPS_CANDIDATE_1_8918|56=DTL|34=164|52=20240129-06:02:55|11=163|21=1|55=BAC|54=2|60=20240129-06:02:55|40=1|38=46|10=065
SERVER NEW ORDER: 8=FIX.4.2|9=115|35=9|34=315|49=DTL|52=20240129-06:02:55.392|56=OPS_CANDIDATE_1_8918|11=162|37=NONE|39=8|41=161|58=Unknown order id|10=227|
CLIENT NEW ORDER: 8=FIX.4.2|35=D|49=OPS_CANDIDATE_1_8918|56=DTL|34=165|52=20240129-06:02:55|11=164|21=1|55=BAC|54=2|60=20240129-06:02:55|40=1|38=90|10=066
SERVER NEW ORDER: 8=FIX.4.2|9=123|35=8|34=316|49=DTL|52=20240129-06:02:55.605|56=OPS_CANDIDATE_1_8918|11=163|37=02128|38=46|39=0|40=1|44=0|54=2|55=BAC|150=0|10=173|
CLIENT ORDER CANCEL REQUEST: 8=FIX.4.2|35=F|49=OPS_CANDIDATE_1_8918|56=DTL|34=166|52=20240129-06:02:55|41=164|37=165|11=165|55=BAC|54=2|38=90|60=20240129-06:02:55|10=035
SERVER ORDER CANCEL REQUEST: 8=FIX.4.2|9=123|35=8|34=317|49=DTL|52=20240129-06:02:55.818|56=OPS_CANDIDATE_1_8918|11=164|37=02129|38=90|39=0|40=1|44=0|54=2|55=BAC|150=0|10=181|8=FIX.4.2|9=141|35=8|34=318|49=DTL|52=20240129-06:02:55.973|56=OPS_CANDIDATE_1_8918|11=156|17=03372|30=NSDQ|31=152.74|32=29|37=02124|39=2|54=5|55=AAPL|150=2|10=181|8=FIX.4.2|9=141|35=8|34=319|49=DTL|52=20240129-06:02:55.973|56=OPS_CANDIDATE_1_8918|11=161|17=03373|30=NSDQ|31=240.54|32=84|37=02127|39=1|54=2|55=MSFT|150=1|10=202|8=FIX.4.2|9=139|35=8|34=320|49=DTL|52=20240129-06:02:55.973|56=OPS_CANDIDATE_1_8918|11=163|17=03374|30=NSDQ|31=32.72|32=46|37=02128|39=2|54=2|55=BAC|150=2|10=040|8=FIX.4.2|9=139|35=8|34=321|49=DTL|52=20240129-06:02:55.974|56=OPS_CANDIDATE_1_8918|11=164|17=03375|30=NSDQ|31=34.28|32=34|37=02129|39=1|54=2|55=BAC|150=1|10=043|
CLIENT NEW ORDER: 8=FIX.4.2|35=D|49=OPS_CANDIDATE_1_8918|56=DTL|34=167|52=20240129-06:02:56|11=166|21=1|55=BAC|54=5|60=20240129-06:02:56|40=1|38=2|10=020
SERVER NEW ORDER: 8=FIX.4.2|9=115|35=9|34=322|49=DTL|52=20240129-06:02:56.031|56=OPS_CANDIDATE_1_8918|11=165|37=NONE|39=8|41=164|58=Unknown order id|10=222|
CLIENT ORDER CANCEL REQUEST: 8=FIX.4.2|35=F|49=OPS_CANDIDATE_1_8918|56=DTL|34=168|52=20240129-06:02:56|41=166|37=167|11=167|55=BAC|54=5|38=2|60=20240129-06:02:56|10=249
SERVER ORDER CANCEL REQUEST: 8=FIX.4.2|9=122|35=8|34=323|49=DTL|52=20240129-06:02:56.244|56=OPS_CANDIDATE_1_8918|11=166|37=02130|38=2|39=0|40=1|44=0|54=5|55=BAC|150=0|10=113|
CLIENT NEW ORDER: 8=FIX.4.2|35=D|49=OPS_CANDIDATE_1_8918|56=DTL|34=169|52=20240129-06:02:56|11=168|21=1|55=BAC|54=2|60=20240129-06:02:56|40=1|38=16|10=074
SERVER NEW ORDER: 8=FIX.4.2|9=115|35=9|34=324|49=DTL|52=20240129-06:02:56.457|56=OPS_CANDIDATE_1_8918|11=167|37=NONE|39=8|41=166|58=Unknown order id|10=240|
CLIENT ORDER CANCEL REQUEST: 8=FIX.4.2|35=F|49=OPS_CANDIDATE_1_8918|56=DTL|34=170|52=20240129-06:02:56|41=168|37=169|11=169|55=BAC|54=2|38=16|60=20240129-06:02:56|10=042
SERVER ORDER CANCEL REQUEST: 8=FIX.4.2|9=123|35=8|34=325|49=DTL|52=20240129-06:02:56.670|56=OPS_CANDIDATE_1_8918|11=168|37=02131|38=16|39=0|40=1|44=0|54=2|55=BAC|150=0|10=172|
CLIENT NEW ORDER: 8=FIX.4.2|35=D|49=OPS_CANDIDATE_1_8918|56=DTL|34=171|52=20240129-06:02:56|11=170|21=1|55=MSFT|54=2|60=20240129-06:02:56|40=2|44=20|38=37|10=055
SERVER NEW ORDER: 8=FIX.4.2|9=115|35=9|34=326|49=DTL|52=20240129-06:02:56.883|56=OPS_CANDIDATE_1_8918|11=169|37=NONE|39=8|41=168|58=Unknown order id|10=249|8=FIX.4.2|9=139|35=8|34=327|49=DTL|52=20240129-06:02:56.977|56=OPS_CANDIDATE_1_8918|11=161|17=03376|30=NSDQ|31=239.6|32=3|37=02127|39=1|54=2|55=MSFT|150=1|10=116|8=FIX.4.2|9=138|35=8|34=328|49=DTL|52=20240129-06:02:56.977|56=OPS_CANDIDATE_1_8918|11=164|17=03377|30=NSDQ|31=32.7|32=29|37=02129|39=1|54=2|55=BAC|150=1|10=006|8=FIX.4.2|9=138|35=8|34=329|49=DTL|52=20240129-06:02:56.977|56=OPS_CANDIDATE_1_8918|11=166|17=03378|30=NSDQ|31=33.14|32=1|37=02130|39=1|54=5|55=BAC|150=1|10=250|8=FIX.4.2|9=136|35=8|34=330|49=DTL|52=20240129-06:02:56.978|56=OPS_CANDIDATE_1_8918|11=168|17=03379|30=NSDQ|31=34|32=16|37=02131|39=2|54=2|55=BAC|150=2|10=152|
CLIENT NEW ORDER: 8=FIX.4.2|35=D|49=OPS_CANDIDATE_1_8918|56=DTL|34=172|52=20240129-06:02:57|11=171|21=1|55=BAC|54=5|60=20240129-06:02:57|40=2|44=50|38=58|10=208
SERVER NEW ORDER: 8=FIX.4.2|9=125|35=8|34=331|49=DTL|52=20240129-06:02:57.096|56=OPS_CANDIDATE_1_8918|11=170|37=02132|38=37|39=0|40=2|44=20|54=2|55=MSFT|150=0|10=082|
CLIENT NEW ORDER: 8=FIX.4.2|35=D|49=OPS_CANDIDATE_1_8918|56=DTL|34=173|52=20240129-06:02:57|11=172|21=1|55=AAPL|54=1|60=20240129-06:02:57|40=1|38=29|10=157
SERVER NEW ORDER: 8=FIX.4.2|9=124|35=8|34=332|49=DTL|52=20240129-06:02:57.309|56=OPS_CANDIDATE_1_8918|11=171|37=02133|38=58|39=0|40=2|44=50|54=5|55=BAC|150=0|10=230|
CLIENT ORDER CANCEL REQUEST: 8=FIX.4.2|35=F|49=OPS_CANDIDATE_1_8918|56=DTL|34=174|52=20240129-06:02:57|41=172|37=173|11=173|55=AAPL|54=1|38=29|60=20240129-06:02:57|10=124
SERVER ORDER CANCEL REQUEST: 8=FIX.4.2|9=124|35=8|34=333|49=DTL|52=20240129-06:02:57.522|56=OPS_CANDIDATE_1_8918|11=172|37=02134|38=29|39=0|40=1|44=0|54=1|55=AAPL|150=0|10=002|
CLIENT NEW ORDER: 8=FIX.4.2|35=D|49=OPS_CANDIDATE_1_8918|56=DTL|34=175|52=20240129-06:02:57|11=174|21=1|55=BAC|54=5|60=20240129-06:02:57|40=1|38=74|10=077
SERVER NEW ORDER: 8=FIX.4.2|9=115|35=9|34=334|49=DTL|52=20240129-06:02:57.735|56=OPS_CANDIDATE_1_8918|11=173|37=NONE|39=8|41=172|58=Unknown order id|10=235|
CLIENT ORDER CANCEL REQUEST: 8=FIX.4.2|35=F|49=OPS_CANDIDATE_1_8918|56=DTL|34=176|52=20240129-06:02:58|41=174|37=175|11=175|55=BAC|54=5|38=74|60=20240129-06:02:58|10=050
SERVER ORDER CANCEL REQUEST: 8=FIX.4.2|9=123|35=8|34=335|49=DTL|52=20240129-06:02:57.948|56=OPS_CANDIDATE_1_8918|11=174|37=02135|38=74|39=0|40=1|44=0|54=5|55=BAC|150=0|10=190|8=FIX.4.2|9=140|35=8|34=336|49=DTL|52=20240129-06:02:57.981|56=OPS_CANDIDATE_1_8918|11=161|17=03380|30=NSDQ|31=241.13|32=6|37=02127|39=2|54=2|55=MSFT|150=2|10=143|8=FIX.4.2|9=139|35=8|34=337|49=DTL|52=20240129-06:02:57.981|56=OPS_CANDIDATE_1_8918|11=164|17=03381|30=NSDQ|31=33.68|32=20|37=02129|39=1|54=2|55=BAC|150=1|10=045|8=FIX.4.2|9=137|35=8|34=338|49=DTL|52=20240129-06:02:57.982|56=OPS_CANDIDATE_1_8918|11=166|17=03382|30=NSDQ|31=30.9|32=1|37=02130|39=2|54=5|55=BAC|150=2|10=196|8=FIX.4.2|9=141|35=8|34=339|49=DTL|52=20240129-06:02:57.982|56=OPS_CANDIDATE_1_8918|11=170|17=03383|30=NSDQ|31=237.87|32=14|37=02132|39=1|54=2|55=MSFT|150=1|10=208|8=FIX.4.2|9=139|35=8|34=340|49=DTL|52=20240129-06:02:57.982|56=OPS_CANDIDATE_1_8918|11=171|17=03384|30=NSDQ|31=30.06|32=58|37=02133|39=2|54=5|55=BAC|150=2|10=041|8=FIX.4.2|9=141|35=8|34=341|49=DTL|52=20240129-06:02:57.982|56=OPS_CANDIDATE_1_8918|11=172|17=03385|30=NSDQ|31=152.52|32=11|37=02134|39=1|54=1|55=AAPL|150=1|10=163|8=FIX.4.2|9=139|35=8|34=342|49=DTL|52=20240129-06:02:57.982|56=OPS_CANDIDATE_1_8918|11=174|17=03386|30=NSDQ|31=30.86|32=70|37=02135|39=1|54=5|55=BAC|150=1|10=050|
CLIENT NEW ORDER: 8=FIX.4.2|35=D|49=OPS_CANDIDATE_1_8918|56=DTL|34=177|52=20240129-06:02:58|11=176|21=1|55=BAC|54=2|60=20240129-06:02:58|40=1|38=66|10=081
SERVER NEW ORDER: 8=FIX.4.2|9=115|35=9|34=343|49=DTL|52=20240129-06:02:58.163|56=OPS_CANDIDATE_1_8918|11=175|37=NONE|39=8|41=174|58=Unknown order id|10=235|
CLIENT NEW ORDER: 8=FIX.4.2|35=D|49=OPS_CANDIDATE_1_8918|56=DTL|34=178|52=20240129-06:02:58|11=177|21=1|55=BAC|54=2|60=20240129-06:02:58|40=1|38=12|10=074
SERVER NEW ORDER: 8=FIX.4.2|9=123|35=8|34=344|49=DTL|52=20240129-06:02:58.377|56=OPS_CANDIDATE_1_8918|11=176|37=02136|38=66|39=0|40=1|44=0|54=2|55=BAC|150=0|10=188|
CLIENT ORDER CANCEL REQUEST: 8=FIX.4.2|35=F|49=OPS_CANDIDATE_1_8918|56=DTL|34=179|52=20240129-06:02:58|41=177|37=178|11=178|55=BAC|54=2|38=12|60=20240129-06:02:58|10=051
SERVER ORDER CANCEL REQUEST: 8=FIX.4.2|9=123|35=8|34=345|49=DTL|52=20240129-06:02:58.590|56=OPS_CANDIDATE_1_8918|11=177|37=02137|38=12|39=0|40=1|44=0|54=2|55=BAC|150=0|10=179|
CLIENT NEW ORDER: 8=FIX.4.2|35=D|49=OPS_CANDIDATE_1_8918|56=DTL|34=180|52=20240129-06:02:58|11=179|21=1|55=AAPL|54=2|60=20240129-06:02:58|40=1|38=85|10=167
SERVER NEW ORDER: 8=FIX.4.2|9=115|35=9|34=346|49=DTL|52=20240129-06:02:58.803|56=OPS_CANDIDATE_1_8918|11=178|37=NONE|39=8|41=177|58=Unknown order id|10=245|8=FIX.4.2|9=138|35=8|34=347|49=DTL|52=20240129-06:02:58.986|56=OPS_CANDIDATE_1_8918|11=164|17=03387|30=NSDQ|31=32.92|32=4|37=02129|39=1|54=2|55=BAC|150=1|10=007|8=FIX.4.2|9=140|35=8|34=348|49=DTL|52=20240129-06:02:58.986|56=OPS_CANDIDATE_1_8918|11=170|17=03388|30=NSDQ|31=237.8|32=23|37=02132|39=2|54=2|55=MSFT|150=2|10=164|8=FIX.4.2|9=141|35=8|34=349|49=DTL|52=20240129-06:02:58.986|56=OPS_CANDIDATE_1_8918|11=172|17=03389|30=NSDQ|31=150.93|32=18|37=02134|39=2|54=1|55=AAPL|150=2|10=192|8=FIX.4.2|9=138|35=8|34=350|49=DTL|52=20240129-06:02:58.986|56=OPS_CANDIDATE_1_8918|11=174|17=03390|30=NSDQ|31=32.96|32=4|37=02135|39=2|54=5|55=BAC|150=2|10=002|8=FIX.4.2|9=136|35=8|34=351|49=DTL|52=20240129-06:02:58.986|56=OPS_CANDIDATE_1_8918|11=176|17=03391|30=NSDQ|31=31|32=22|37=02136|39=1|54=2|55=BAC|150=1|10=146|8=FIX.4.2|9=137|35=8|34=352|49=DTL|52=20240129-06:02:58.987|56=OPS_CANDIDATE_1_8918|11=177|17=03392|30=NSDQ|31=31.6|32=3|37=02137|39=1|54=2|55=BAC|150=1|10=203|
CLIENT ORDER CANCEL REQUEST: 8=FIX.4.2|35=F|49=OPS_CANDIDATE_1_8918|56=DTL|34=181|52=20240129-06:02:59|41=179|37=180|11=180|55=AAPL|54=2|38=85|60=20240129-06:02:59|10=132
SERVER ORDER CANCEL REQUEST: 8=FIX.4.2|9=124|35=8|34=353|49=DTL|52=20240129-06:02:59.016|56=OPS_CANDIDATE_1_8918|11=179|37=02138|38=85|39=0|40=1|44=0|54=2|55=AAPL|150=0|10=018|
CLIENT NEW ORDER: 8=FIX.4.2|35=D|49=OPS_CANDIDATE_1_8918|56=DTL|34=182|52=20240129-06:02:59|11=181|21=1|55=MSFT|54=5|60=20240129-06:02:59|40=1|38=70|10=189
SERVER NEW ORDER: 8=FIX.4.2|9=115|35=9|34=354|49=DTL|52=20240129-06:02:59.229|56=OPS_CANDIDATE_1_8918|11=180|37=NONE|39=8|41=179|58=Unknown order id|10=242|
CLIENT ORDER CANCEL REQUEST: 8=FIX.4.2|35=F|49=OPS_CANDIDATE_1_8918|56=DTL|34=183|52=20240129-06:02:59|41=181|37=182|11=182|55=MSFT|54=5|38=70|60=20240129-06:02:59|10=156
SERVER ORDER CANCEL REQUEST: 8=FIX.4.2|9=124|35=8|34=355|49=DTL|52=20240129-06:02:59.442|56=OPS_CANDIDATE_1_8918|11=181|37=02139|38=70|39=0|40=1|44=0|54=5|55=MSFT|150=0|10=042|
CLIENT NEW ORDER: 8=FIX.4.2|35=D|49=OPS_CANDIDATE_1_8918|56=DTL|34=184|52=20240129-06:02:59|11=183|21=1|55=BAC|54=1|60=20240129-06:02:59|40=2|44=50|38=4|10=157
SERVER NEW ORDER: 8=FIX.4.2|9=115|35=9|34=356|49=DTL|52=20240129-06:02:59.655|56=OPS_CANDIDATE_1_8918|11=182|37=NONE|39=8|41=181|58=Unknown order id|10=242|
CLIENT ORDER CANCEL REQUEST: 8=FIX.4.2|35=F|49=OPS_CANDIDATE_1_8918|56=DTL|34=185|52=20240129-06:02:59|41=183|37=184|11=184|55=BAC|54=1|38=4|60=20240129-06:02:59|10=249
SERVER ORDER CANCEL REQUEST: 8=FIX.4.2|9=123|35=8|34=357|49=DTL|52=20240129-06:02:59.868|56=OPS_CANDIDATE_1_8918|11=183|37=02140|38=4|39=0|40=2|44=50|54=1|55=BAC|150=0|10=188|8=FIX.4.2|9=138|35=8|34=358|49=DTL|52=20240129-06:02:59.990|56=OPS_CANDIDATE_1_8918|11=164|17=03393|30=NSDQ|31=33.44|32=3|37=02129|39=2|54=2|55=BAC|150=2|10=001|8=FIX.4.2|9=139|35=8|34=359|49=DTL|52=20240129-06:02:59.991|56=OPS_CANDIDATE_1_8918|11=176|17=03394|30=NSDQ|31=31.45|32=44|37=02136|39=2|54=2|55=BAC|150=2|10=058|8=FIX.4.2|9=138|35=8|34=360|49=DTL|52=20240129-06:02:59.991|56=OPS_CANDIDATE_1_8918|11=177|17=03395|30=NSDQ|31=34.75|32=8|37=02137|39=1|54=2|55=BAC|150=1|10=008|8=FIX.4.2|9=141|35=8|34=361|49=DTL|52=20240129-06:02:59.991|56=OPS_CANDIDATE_1_8918|11=179|17=03396|30=NSDQ|31=152.39|32=55|37=02138|39=1|54=2|55=AAPL|150=1|10=194|8=FIX.4.2|9=141|35=8|34=362|49=DTL|52=20240129-06:02:59.991|56=OPS_CANDIDATE_1_8918|11=181|17=03397|30=NSDQ|31=237.77|32=43|37=02139|39=1|54=5|55=MSFT|150=1|10=224|8=FIX.4.2|9=138|35=8|34=363|49=DTL|52=20240129-06:02:59.991|56=OPS_CANDIDATE_1_8918|11=183|17=03398|30=NSDQ|31=33.61|32=4|37=02140|39=2|54=1|55=BAC|150=2|10=252|
CLIENT NEW ORDER: 8=FIX.4.2|35=D|49=OPS_CANDIDATE_1_8918|56=DTL|34=186|52=20240129-06:03:00|11=185|21=1|55=BAC|54=2|60=20240129-06:03:00|40=2|44=60|38=24|10=187
SERVER NEW ORDER: 8=FIX.4.2|9=115|35=9|34=364|49=DTL|52=20240129-06:03:00.081|56=OPS_CANDIDATE_1_8918|11=184|37=NONE|39=8|41=183|58=Unknown order id|10=225|
CLIENT ORDER CANCEL REQUEST: 8=FIX.4.2|35=F|49=OPS_CANDIDATE_1_8918|56=DTL|34=187|52=20240129-06:03:00|41=185|37=186|11=186|55=BAC|54=2|38=24|60=20240129-06:03:00|10=026
SERVER ORDER CANCEL REQUEST: 8=FIX.4.2|9=124|35=8|34=365|49=DTL|52=20240129-06:03:00.294|56=OPS_CANDIDATE_1_8918|11=185|37=02141|38=24|39=0|40=2|44=60|54=2|55=BAC|150=0|10=223|
CLIENT NEW ORDER: 8=FIX.4.2|35=D|49=OPS_CANDIDATE_1_8918|56=DTL|34=188|52=20240129-06:03:00|11=187|21=1|55=AAPL|54=2|60=20240129-06:03:00|40=2|44=40|38=25|10=022
SERVER NEW ORDER: 8=FIX.4.2|9=115|35=9|34=366|49=DTL|52=20240129-06:03:00.507|56=OPS_CANDIDATE_1_8918|11=186|37=NONE|39=8|41=185|58=Unknown order id|10=234|
CLIENT ORDER CANCEL REQUEST: 8=FIX.4.2|35=F|49=OPS_CANDIDATE_1_8918|56=DTL|34=189|52=20240129-06:03:00|41=187|37=188|11=188|55=AAPL|54=2|38=25|60=20240129-06:03:00|10=123
SERVER ORDER CANCEL REQUEST: 8=FIX.4.2|9=125|35=8|34=367|49=DTL|52=20240129-06:03:00.720|56=OPS_CANDIDATE_1_8918|11=187|37=02142|38=25|39=0|40=2|44=40|54=2|55=AAPL|150=0|10=054|
CLIENT NEW ORDER: 8=FIX.4.2|35=D|49=OPS_CANDIDATE_1_8918|56=DTL|34=190|52=20240129-06:03:01|11=189|21=1|55=MSFT|54=5|60=20240129-06:03:01|40=2|44=10|38=70|10=047
SERVER NEW ORDER: 8=FIX.4.2|9=115|35=9|34=368|49=DTL|52=20240129-06:03:00.933|56=OPS_CANDIDATE_1_8918|11=188|37=NONE|39=8|41=187|58=Unknown order id|10=243|8=FIX.4.2|9=138|35=8|34=369|49=DTL|52=20240129-06:03:00.994|56=OPS_CANDIDATE_1_8918|11=177|17=03399|30=NSDQ|31=30.34|32=1|37=02137|39=2|54=2|55=BAC|150=2|10=253|8=FIX.4.2|9=141|35=8|34=370|49=DTL|52=20240129-06:03:00.994|56=OPS_CANDIDATE_1_8918|11=179|17=03400|30=NSDQ|31=150.64|32=10|37=02138|39=1|54=2|55=AAPL|150=1|10=157|8=FIX.4.2|9=141|35=8|34=371|49=DTL|52=20240129-06:03:00.995|56=OPS_CANDIDATE_1_8918|11=181|17=03401|30=NSDQ|31=241.33|32=27|37=02139|39=2|54=5|55=MSFT|150=2|10=192|8=FIX.4.2|9=139|35=8|34=372|49=DTL|52=20240129-06:03:00.995|56=OPS_CANDIDATE_1_8918|11=185|17=03402|30=NSDQ|31=30.44|32=24|37=02141|39=2|54=2|55=BAC|150=2|10=026|8=FIX.4.2|9=141|35=8|34=373|49=DTL|52=20240129-06:03:00.995|56=OPS_CANDIDATE_1_8918|11=187|17=03403|30=NSDQ|31=150.26|32=25|37=02142|39=2|54=2|55=AAPL|150=2|10=164|
CLIENT NEW ORDER: 8=FIX.4.2|35=D|49=OPS_CANDIDATE_1_8918|56=DTL|34=191|52=20240129-06:03:01|11=190|21=1|55=MSFT|54=1|60=20240129-06:03:01|40=1|38=19|10=164
SERVER NEW ORDER: 8=FIX.4.2|9=125|35=8|34=374|49=DTL|52=20240129-06:03:01.146|56=OPS_CANDIDATE_1_8918|11=189|37=02143|38=70|39=0|40=2|44=10|54=5|55=MSFT|150=0|10=086|
CLIENT ORDER CANCEL REQUEST: 8=FIX.4.2|35=F|49=OPS_CANDIDATE_1_8918|56=DTL|34=192|52=20240129-06:03:01|41=190|37=191|11=191|55=MSFT|54=1|38=19|60=20240129-06:03:01|10=131
SERVER ORDER CANCEL REQUEST: 8=FIX.4.2|9=124|35=8|34=375|49=DTL|52=20240129-06:03:01.359|56=OPS_CANDIDATE_1_8918|11=190|37=02144|38=19|39=0|40=1|44=0|54=1|55=MSFT|150=0|10=034|
CLIENT NEW ORDER: 8=FIX.4.2|35=D|49=OPS_CANDIDATE_1_8918|56=DTL|34=193|52=20240129-06:03:01|11=192|21=1|55=BAC|54=5|60=20240129-06:03:01|40=1|38=69|10=061
SERVER NEW ORDER: 8=FIX.4.2|9=115|35=9|34=376|49=DTL|52=20240129-06:03:01.572|56=OPS_CANDIDATE_1_8918|11=191|37=NONE|39=8|41=190|58=Unknown order id|10=230|
CLIENT NEW ORDER: 8=FIX.4.2|35=D|49=OPS_CANDIDATE_1_8918|56=DTL|34=194|52=20240129-06:03:01|11=193|21=1|55=AAPL|54=2|60=20240129-06:03:01|40=2|44=40|38=46|10=021
SERVER NEW ORDER: 8=FIX.4.2|9=97|35=8|34=377|49=DTL|52=20240129-06:03:01.785|56=OPS_CANDIDATE_1_8918|11=192|39=8|58=Unlucky|150=8|10=143|
CLIENT NEW ORDER: 8=FIX.4.2|35=D|49=OPS_CANDIDATE_1_8918|56=DTL|34=195|52=20240129-06:03:02|11=194|21=1|55=MSFT|54=2|60=20240129-06:03:02|40=1|38=47|10=176
SERVER NEW ORDER: 8=FIX.4.2|9=141|35=8|34=378|49=DTL|52=20240129-06:03:02.000|56=OPS_CANDIDATE_1_8918|11=179|17=03404|30=NSDQ|31=150.07|32=20|37=02138|39=2|54=2|55=AAPL|150=2|10=149|8=FIX.4.2|9=141|35=8|34=379|49=DTL|52=20240129-06:03:02.000|56=OPS_CANDIDATE_1_8918|11=189|17=03405|30=NSDQ|31=237.98|32=51|37=02143|39=1|54=5|55=MSFT|150=1|10=197|8=FIX.4.2|9=141|35=8|34=380|49=DTL|52=20240129-06:03:02.001|56=OPS_CANDIDATE_1_8918|11=190|17=03406|30=NSDQ|31=238.07|32=14|37=02144|39=1|54=1|55=MSFT|150=1|10=170|8=FIX.4.2|9=125|35=8|34=381|49=DTL|52=20240129-06:03:02.001|56=OPS_CANDIDATE_1_8918|11=193|37=02146|38=46|39=0|40=2|44=40|54=2|55=AAPL|150=0|10=048|
CLIENT NEW ORDER: 8=FIX.4.2|35=D|49=OPS_CANDIDATE_1_8918|56=DTL|34=196|52=20240129-06:03:02|11=195|21=1|55=BAC|54=5|60=20240129-06:03:02|40=2|44=50|38=34|10=196
SERVER NEW ORDER: 8=FIX.4.2|9=124|35=8|34=382|49=DTL|52=20240129-06:03:02.211|56=OPS_CANDIDATE_1_8918|11=194|37=02147|38=47|39=0|40=1|44=0|54=2|55=MSFT|150=0|10=029|
CLIENT NEW ORDER: 8=FIX.4.2|35=D|49=OPS_CANDIDATE_1_8918|56=DTL|34=197|52=20240129-06:03:02|11=196|21=1|55=MSFT|54=2|60=20240129-06:03:02|40=2|44=20|38=67|10=058
SERVER NEW ORDER: 8=FIX.4.2|9=124|35=8|34=383|49=DTL|52=20240129-06:03:02.424|56=OPS_CANDIDATE_1_8918|11=195|37=02148|38=34|39=0|40=2|44=50|54=5|55=BAC|150=0|10=231|
CLIENT ORDER CANCEL REQUEST: 8=FIX.4.2|35=F|49=OPS_CANDIDATE_1_8918|56=DTL|34=198|52=20240129-06:03:02|41=196|37=197|11=197|55=MSFT|54=2|38=67|60=20240129-06:03:02|10=161
SERVER ORDER CANCEL REQUEST: 8=FIX.4.2|9=125|35=8|34=384|49=DTL|52=20240129-06:03:02.637|56=OPS_CANDIDATE_1_8918|11=196|37=02149|38=67|39=0|40=2|44=20|54=2|55=MSFT|150=0|10=101|
CLIENT NEW ORDER: 8=FIX.4.2|35=D|49=OPS_CANDIDATE_1_8918|56=DTL|34=199|52=20240129-06:03:02|11=198|21=1|55=BAC|54=1|60=20240129-06:03:02|40=2|44=50|38=38|10=202
SERVER NEW ORDER: 8=FIX.4.2|9=115|35=9|34=385|49=DTL|52=20240129-06:03:02.850|56=OPS_CANDIDATE_1_8918|11=197|37=NONE|39=8|41=196|58=Unknown order id|10=242|8=FIX.4.2|9=140|35=8|34=386|49=DTL|52=20240129-06:03:03.006|56=OPS_CANDIDATE_1_8918|11=189|17=03407|30=NSDQ|31=242.55|32=7|37=02143|39=1|54=5|55=MSFT|150=1|10=145|8=FIX.4.2|9=140|35=8|34=387|49=DTL|52=20240129-06:03:03.006|56=OPS_CANDIDATE_1_8918|11=190|17=03408|30=NSDQ|31=238.59|32=5|37=02144|39=2|54=1|55=MSFT|150=2|10=145|8=FIX.4.2|9=141|35=8|34=388|49=DTL|52=20240129-06:03:03.006|56=OPS_CANDIDATE_1_8918|11=193|17=03409|30=NSDQ|31=151.02|32=20|37=02146|39=1|54=2|55=AAPL|150=1|10=151|8=FIX.4.2|9=141|35=8|34=389|49=DTL|52=20240129-06:03:03.007|56=OPS_CANDIDATE_1_8918|11=194|17=03410|30=NSDQ|31=237.15|32=47|37=02147|39=2|54=2|55=MSFT|150=2|10=195|8=FIX.4.2|9=139|35=8|34=390|49=DTL|52=20240129-06:03:03.007|56=OPS_CANDIDATE_1_8918|11=195|17=03411|30=NSDQ|31=34.61|32=22|37=02148|39=1|54=5|55=BAC|150=1|10=023|8=FIX.4.2|9=141|35=8|34=391|49=DTL|52=20240129-06:03:03.007|56=OPS_CANDIDATE_1_8918|11=196|17=03412|30=NSDQ|31=240.45|32=11|37=02149|39=1|54=2|55=MSFT|150=1|10=180|
CLIENT NEW ORDER: 8=FIX.4.2|35=D|49=OPS_CANDIDATE_1_8918|56=DTL|34=200|52=20240129-06:03:03|11=199|21=1|55=BAC|54=5|60=20240129-06:03:03|40=1|38=8|10=006
SERVER NEW ORDER: 8=FIX.4.2|9=124|35=8|34=392|49=DTL|52=20240129-06:03:03.063|56=OPS_CANDIDATE_1_8918|11=198|37=02150|38=38|39=0|40=2|44=50|54=1|55=BAC|150=0|10=227|
CLIENT ORDER CANCEL REQUEST: 8=FIX.4.2|35=F|49=OPS_CANDIDATE_1_8918|56=DTL|34=201|52=20240129-06:03:03|41=199|37=200|11=200|55=BAC|54=5|38=8|60=20240129-06:03:03|10=211
SERVER ORDER CANCEL REQUEST: 8=FIX.4.2|9=122|35=8|34=393|49=DTL|52=20240129-06:03:03.276|56=OPS_CANDIDATE_1_8918|11=199|37=02151|38=8|39=0|40=1|44=0|54=5|55=BAC|150=0|10=133|
CLIENT NEW ORDER: 8=FIX.4.2|35=D|49=OPS_CANDIDATE_1_8918|56=DTL|34=202|52=20240129-06:03:03|11=201|21=1|55=AAPL|54=1|60=20240129-06:03:03|40=1|38=43|10=123
SERVER NEW ORDER: 8=FIX.4.2|9=115|35=9|34=394|49=DTL|52=20240129-06:03:03.489|56=OPS_CANDIDATE_1_8918|11=200|37=NONE|39=8|41=199|58=Unknown order id|10=239|
CLIENT ORDER CANCEL REQUEST: 8=FIX.4.2|35=F|49=OPS_CANDIDATE_1_8918|56=DTL|34=203|52=20240129-06:03:03|41=201|37=202|11=202|55=AAPL|54=1|38=43|60=20240129-06:03:03|10=076
SERVER ORDER CANCEL REQUEST: 8=FIX.4.2|9=124|35=8|34=395|49=DTL|52=20240129-06:03:03.702|56=OPS_CANDIDATE_1_8918|11=201|37=02152|38=43|39=0|40=1|44=0|54=1|55=AAPL|150=0|10=247|
CLIENT NEW ORDER: 8=FIX.4.2|35=D|49=OPS_CANDIDATE_1_8918|56=DTL|34=204|52=20240129-06:03:04|11=203|21=1|55=BAC|54=2|60=20240129-06:03:04|40=2|44=60|38=68|10=185
SERVER NEW ORDER: 8=FIX.4.2|9=115|35=9|34=396|49=DTL|52=20240129-06:03:03.914|56=OPS_CANDIDATE_1_8918|11=202|37=NONE|39=8|41=201|58=Unknown order id|10=220|8=FIX.4.2|9=141|35=8|34=397|49=DTL|52=20240129-06:03:04.012|56=OPS_CANDIDATE_1_8918|11=189|17=03413|30=NSDQ|31=242.76|32=12|37=02143|39=2|54=5|55=MSFT|150=2|10=192|8=FIX.4.2|9=141|35=8|34=398|49=DTL|52=20240129-06:03:04.013|56=OPS_CANDIDATE_1_8918|11=193|17=03414|30=NSDQ|31=152.81|32=24|37=02146|39=1|54=2|55=AAPL|150=1|10=159|8=FIX.4.2|9=139|35=8|34=399|49=DTL|52=20240129-06:03:04.013|56=OPS_CANDIDATE_1_8918|11=195|17=03415|30=NSDQ|31=34.15|32=12|37=02148|39=2|54=5|55=BAC|150=2|10=034|8=FIX.4.2|9=140|35=8|34=400|49=DTL|52=20240129-06:03:04.013|56=OPS_CANDIDATE_1_8918|11=196|17=03416|30=NSDQ|31=238.3|32=56|37=02149|39=2|54=2|55=MSFT|150=2|10=136|8=FIX.4.2|9=138|35=8|34=401|49=DTL|52=20240129-06:03:04.013|56=OPS_CANDIDATE_1_8918|11=198|17=03417|30=NSDQ|31=32.57|32=2|37=02150|39=1|54=1|55=BAC|150=1|10=220|8=FIX.4.2|9=137|35=8|34=402|49=DTL|52=20240129-06:03:04.013|56=OPS_CANDIDATE_1_8918|11=199|17=03418|30=NSDQ|31=32.3|32=8|37=02151|39=2|54=5|55=BAC|150=2|10=178|8=FIX.4.2|9=141|35=8|34=403|49=DTL|52=20240129-06:03:04.014|56=OPS_CANDIDATE_1_8918|11=201|17=03419|30=NSDQ|31=150.05|32=39|37=02152|39=1|54=1|55=AAPL|150=1|10=138|
CLIENT NEW ORDER: 8=FIX.4.2|35=D|49=OPS_CANDIDATE_1_8918|56=DTL|34=205|52=20240129-06:03:04|11=204|21=1|55=AAPL|54=5|60=20240129-06:03:04|40=2|44=30|38=25|10=012
SERVER NEW ORDER: 8=FIX.4.2|9=124|35=8|34=404|49=DTL|52=20240129-06:03:04.128|56=OPS_CANDIDATE_1_8918|11=203|37=02153|38=68|39=0|40=2|44=60|54=2|55=BAC|150=0|10=219|
CLIENT ORDER CANCEL REQUEST: 8=FIX.4.2|35=F|49=OPS_CANDIDATE_1_8918|56=DTL|34=206|52=20240129-06:03:04|41=204|37=205|11=205|55=AAPL|54=5|38=25|60=20240129-06:03:04|10=094
SERVER ORDER CANCEL REQUEST: 8=FIX.4.2|9=125|35=8|34=405|49=DTL|52=20240129-06:03:04.341|56=OPS_CANDIDATE_1_8918|11=204|37=02154|38=25|39=0|40=2|44=30|54=5|55=AAPL|150=0|10=045|
CLIENT NEW ORDER: 8=FIX.4.2|35=D|49=OPS_CANDIDATE_1_8918|56=DTL|34=207|52=20240129-06:03:04|11=206|21=1|55=BAC|54=1|60=20240129-06:03:04|40=2|44=50|38=68|10=189
SERVER NEW ORDER: 8=FIX.4.2|9=115|35=9|34=406|49=DTL|52=20240129-06:03:04.554|56=OPS_CANDIDATE_1_8918|11=205|37=NONE|39=8|41=204|58=Unknown order id|10=219|
CLIENT NEW ORDER: 8=FIX.4.2|35=D|49=OPS_CANDIDATE_1_8918|56=DTL|34=208|52=20240129-06:03:04|11=207|21=1|55=AAPL|54=5|60=20240129-06:03:04|40=2|44=30|38=40|10=015
SERVER NEW ORDER: 8=FIX.4.2|9=124|35=8|34=407|49=DTL|52=20240129-06:03:04.767|56=OPS_CANDIDATE_1_8918|11=206|37=02155|38=68|39=0|40=2|44=50|54=1|55=BAC|150=0|10=234|
CLIENT ORDER CANCEL REQUEST: 8=FIX.4.2|35=F|49=OPS_CANDIDATE_1_8918|56=DTL|34=209|52=20240129-06:03:05|41=207|37=208|11=208|55=AAPL|54=5|38=40|60=20240129-06:03:05|10=105
